:100000000C9437000C945F000C945F000C945F001C
:100010000C945F000C945F000C945F000C945F00E4
:100020000C945F000C945F000C945F000C945F00D4
:100030000C945F000C945F000C945F000C945F00C4
:100040000C94DA000C945F000C946B010C949D01ED
:100050000C945F000C945F000C945F000C945F00A4
:100060000C945F000C945F00B500CD01BB0011241F
:100070001FBECFEFD8E0DEBFCDBF11E0A0E0B1E002
:10008000E0E7FEE002C005900D92AA32B107D9F771
:1000900021E0AAE2B1E001C01D92AF3DB207E1F755
:1000A00010E0CCE6D0E004C02297FE010E94EF04ED
:1000B000C836D107C9F70E9411020C942B070C9483
:1000C000000026E040E855E260E070E08EE391E059
:1000D0000E94030368EC70E08FE291E00E9421042B
:1000E0000E94240160932A0170932B0180932C01BC
:1000F00090932D0108950F931F9380912E018823D3
:1001000071F06FE271E08EE391E00E94CC0369E14F
:1001100071E08FE291E00E94740410922E010E941F
:10012000240100912A0110912B0120912C01309182
:100130002D01601B710B820B930B693E734081058F
:10014000910580F066E071E08EE391E00E94DE03AD
:100150000E94240160932A0170932B0180932C014B
:1001600090932D011F910F91089569E171E08FE245
:1001700091E00C945E048FE291E00C94F003CF9335
:10018000DF93D1E08EE391E00E942002892B79F089
:100190008EE391E00E943902C82F682F8FE291E030
:1001A0000E94B804CA3071F7D0932E01EBCFDF91D3
:1001B000CF9108951F920F920FB60F9211242F9393
:1001C0003F938F939F93AF93BF938091360190910C
:1001D0003701A0913801B09139013091350123E008
:1001E000230F2D3720F40196A11DB11D05C026E86F
:1001F000230F0296A11DB11D209335018093360176
:1002000090933701A0933801B093390180913A015E
:1002100090913B01A0913C01B0913D010196A11D3F
:10022000B11D80933A0190933B01A0933C01B093A0
:100230003D01BF91AF919F918F913F912F910F9071
:100240000FBE0F901F9018952FB7F894609136014C
:100250007091370180913801909139012FBF089535
:10026000789484B5826084BD84B5816084BD85B591
:10027000826085BD85B5816085BDEEE6F0E0808158
:1002800081608083E1E8F0E0108280818260808379
:10029000808181608083E0E8F0E0808181608083FC
:1002A000E1EBF0E0808184608083E0EBF0E080812E
:1002B00081608083EAE7F0E08081846080838081D0
:1002C0008260808380818160808380818068808378
:1002D0001092C10008951F920F920FB60F92112431
:1002E0002F938F939F93EF93FF93E0914E01F091A3
:1002F0004F018081E0915401F091550182FD12C0BF
:100300009081809157018F5F8F73209158018217E0
:1003100051F0E0915701F0E0E25CFE4F958F809341
:10032000570101C08081FF91EF919F918F912F9193
:100330000F900FBE0F901F9018951F920F920FB63F
:100340000F9211242F933F934F935F936F937F935B
:100350008F939F93AF93BF93EF93FF938EE391E0BF
:100360000E945B02FF91EF91BF91AF919F918F919E
:100370007F916F915F914F913F912F910F900FBEA1
:100380000F901F9018958EE391E00E94200221E0CB
:10039000892B09F420E0822F0895109241011092D8
:1003A000400188EE93E0A0E0B0E08093420190939A
:1003B0004301A0934401B09345018EE191E09093F5
:1003C0003F0180933E0185EC90E090934B01809338
:1003D0004A0184EC90E090934D0180934C0180ECB5
:1003E00090E090934F0180934E0181EC90E09093C8
:1003F00051018093500182EC90E0909353018093DF
:10040000520186EC90E09093550180935401109234
:100410005701109258011092590110925A010895F3
:1004200008950E9430010E9410020E946100CDE4F4
:10043000D2E00E947B002097E1F30E944D02F9CFA9
:10044000FC01818D228D90E0805C9F4F821B910981
:100450008F7399270895FC01918D828D981731F043
:10046000828DE80FF11D858D90E008958FEF9FEF4D
:100470000895FC01918D828D981761F0828DDF01C6
:10048000A80FB11D5D968C91928D9F5F9F73928F87
:1004900090E008958FEF9FEF089583EC91E0892B12
:1004A00049F08FEB90E0892B29F00E94C301811164
:1004B0000C94BF000895FC01848DDF01A80FB11DCD
:1004C000A35ABF4F2C91848D90E001968F7399278A
:1004D000848FA689B7892C93A089B1898C91806477
:1004E0008C93938D848D981306C00288F389E02D38
:1004F00080818F7D80830895CF93DF93EC01888D79
:100500008823C9F0EA89FB89808185FD05C0A88917
:10051000B9898C9186FD0FC00FB607FCF5CF80819D
:1005200085FFF2CFA889B9898C9185FFEDCFCE01E7
:100530000E945B02E7CFDF91CF910895CF92DF92C7
:10054000FF920F931F93CF93DF931F92CDB7DEB728
:100550006C01DC015B969C915B975C968C915C973F
:10056000981307C05096ED91FC915197808185FDBD
:1005700032C0F601038D10E00F5F1F4F0F7311277C
:10058000F02EF601848DF81211C00FB607FCF9CFDA
:10059000D6015096ED91FC915197808185FFF1CF66
:1005A000C60169830E945B026981EBCF838DE80FEE
:1005B000F11DE35AFF4F6083D6015B960C935B9766
:1005C0005296ED91FC91539780818062808381E007
:1005D00058968C930DC0D6015696ED91FC91579785
:1005E00060835096ED91FC91519780818064808367
:1005F00081E090E00F90DF91CF911F910F91FF90DC
:10060000DF90CF900895BF92CF92DF92EF92FF924A
:10061000CF93DF93EC016A017B01B22EE889F9895F
:1006200082E08083411581EE580761057105A1F0D4
:1006300060E079E08DE390E0A70196010E94CB0491
:10064000215031094109510956954795379527950C
:10065000211580E1380798F0E889F989108260E86F
:1006600074E88EE190E0A70196010E94CB0421502E
:100670003109410951095695479537952795EC85DC
:10068000FD853083EE85FF852083188EEC89FD89FA
:10069000B082EA89FB89808180618083EA89FB8955
:1006A000808188608083EA89FB898081806880837B
:1006B000EA89FB8980818F7D8083DF91CF91FF90D4
:1006C000EF90DF90CF90BF900895CF92DF92EF929E
:1006D000FF920F931F93CF93DF936C017A01EB018D
:1006E000E60EF71E00E010E0CE15DF0561F069911F
:1006F000D601ED91FC910190F081E02DC6010995A4
:10070000080F191FF1CFC801DF91CF911F910F91F1
:10071000FF90EF90DF90CF9008956115710581F003
:10072000DB010D900020E9F7AD0141505109461B56
:10073000570BDC01ED91FC910280F381E02D0994CF
:1007400080E090E00895DC01ED91FC91DB011496CE
:100750004D915C9115976D917C910280F381E02D14
:100760000994DC01ED91FC910190F081E02D099458
:100770000F931F93CF93DF93EC016DE00E94B103C1
:100780008C016AE0CE010E94B103800F911FDF91BE
:10079000CF911F910F9108950F931F93CF93DF93E4
:1007A000EC010E94A3038C01CE010E94B803800FCC
:1007B000911FDF91CF911F910F9108950F931F9378
:1007C000CF93DF93EC010E948D038C01CE010E9438
:1007D000B803800F911FDF91CF911F910F91089562
:1007E000FC01808191810C948B05CF93DF93EC0108
:1007F00088819981009711F00E948B0519821882D7
:100800001D821C821B821A82DF91CF9108950F9363
:100810001F93CF93DF93EC018B016F5F7F4F888134
:1008200099810E941A06009731F0998388831B836F
:100830000A8381E001C080E0DF91CF911F910F9189
:100840000895CF93DF93EC0188819981892B29F05A
:100850008A819B818617970760F4CE010E94070466
:10086000882341F08C819D81892B19F4E881F981DD
:10087000108281E0DF91CF910895EF92FF920F9364
:100880001F93CF93DF93EC017B018A01BA010E9491
:100890002104811104C0CE010E94F50307C01D830D
:1008A0000C83B701888199810E94ED06CE01DF910A
:1008B000CF911F910F91FF90EF900895FC0111824D
:1008C000108213821282158214826115710559F00B
:1008D000FB0101900020E9F7AF0141505109461B8F
:1008E000570B0C943D040895CF93DF93EC016115F1
:1008F000710561F0FB0101900020E9F7AF01415063
:100900005109461B570B0E943D0402C00E94F5038B
:10091000CE01DF91CF910895EF92FF920F931F9335
:10092000CF93DF93EC017B010C811D816115710573
:1009300011F480E016C04115510591F0040F151F08
:10094000B8010E9421048823A1F3288139818C8178
:100950009D81B701820F931F0E94ED061D830C83BA
:1009600081E0DF91CF911F910F91FF90EF9008955B
:10097000CF93DF9300D0CDB7DEB769831A8241E011
:1009800050E0BE016F5F7F4F0E948C040F900F906C
:10099000DF91CF910895A1E21A2EAA1BBB1BFD0186
:1009A0000DC0AA1FBB1FEE1FFF1FA217B307E4074E
:1009B000F50720F0A21BB30BE40BF50B661F771FA6
:1009C000881F991F1A9469F7609570958095909586
:1009D0009B01AC01BD01CF010895EE0FFF1F0590F3
:1009E000F491E02D0994CF93DF938230910510F4B8
:1009F00082E090E0E091DD01F091DE0120E030E066
:100A0000A0E0B0E0309739F1408151814817590793
:100A1000B8F04817590771F482819381109729F033
:100A200013969C938E9312972CC09093DE01809323
:100A3000DD0127C02115310531F04217530718F0A9
:100A4000A901DB0101C0EF019A01BD01DF010280B4
:100A5000F381E02DD7CF21153105F9F0281B390B93
:100A60002430310580F48A819B816115710521F064
:100A7000FB019383828304C09093DE018093DD01A8
:100A8000FE01329644C0FE01E20FF31F8193919361
:100A900022503109398328833AC02091DB013091FB
:100AA000DC01232B41F420910201309103013093AA
:100AB000DC012093DB01209100013091010121151F
:100AC000310541F42DB73EB7409104015091050125
:100AD000241B350BE091DB01F091DC01E217F307F9
:100AE000A0F42E1B3F0B2817390778F0AC014E5F9E
:100AF0005F4F2417350748F04E0F5F1F5093DC01FE
:100B00004093DB018193919302C0E0E0F0E0CF01DC
:100B1000DF91CF910895CF93DF93009709F487C0B9
:100B2000FC01329713821282C091DD01D091DE0167
:100B3000209781F420813181280F391F8091DB01BA
:100B40009091DC018217930779F5F093DC01E09333
:100B5000DB016DC0DE0120E030E0AE17BF0750F4CE
:100B600012964D915C9113979D014115510509F124
:100B7000DA01F3CFB383A28340815181840F951FA3
:100B80008A179B0771F48D919C911197840F951F83
:100B900002969183808312968D919C9113979383F3
:100BA00082832115310529F4F093DE01E093DD0104
:100BB0003EC0D9011396FC93EE9312974D915D912F
:100BC000A40FB51FEA17FB0779F480819181840F88
:100BD000951F0296D90111969C938E9382819381E1
:100BE00013969C938E931297E0E0F0E08A819B81AC
:100BF000009719F0FE01EC01F9CFCE010296288191
:100C00003981820F931F2091DB013091DC0128177D
:100C1000390769F4309729F41092DE011092DD0152
:100C200002C013821282D093DC01C093DB01DF91FA
:100C3000CF910895A0E0B0E0E0E2F6E00C94F80671
:100C4000EC01CB01209719F40E94F304B8C0FE0117
:100C5000E60FF71F9E0122503109E217F30708F44F
:100C6000ACC0D9010D911C91119706171707B8F068
:100C70000530110508F49FC0A801445051094617DA
:100C8000570708F498C002501109061B170B01936F
:100C900011936D937C93CF010E948B058CC05B01F7
:100CA000A01AB10A4E01800E911EA091DD01B091F3
:100CB000DE01612C712C60E070E0109709F449C0EE
:100CC000A815B905C9F5ED90FC901197670142E0B0
:100CD000C40ED11CCA14DB0478F147018A189B08A2
:100CE000640142E0C40ED11C1296BC901297139678
:100CF000AC91B5E0CB16D10440F0B282A3839182CF
:100D00008082D9018D939C9309C00E5F1F4F0E0DF9
:100D10001F1DF90111830083EB2DFA2F6115710559
:100D200031F0DB011396FC93EE93129744C0F093DD
:100D3000DE01E093DD013FC06D917C911197661655
:100D4000770608F43B01BD0112960D90BC91A02DD1
:100D5000B4CF6091DB017091DC0168157905E9F48D
:100D600068167906D0F440910001509101014115B7
:100D7000510541F44DB75EB76091040170910501D2
:100D8000461B570BE417F507C0F4F093DC01E09322
:100D9000DB01F901918380830EC00E94F3047C0182
:100DA000009759F0A801BE010E94E406CE010E94FE
:100DB0008B05C70104C0CE0102C080E090E0CDB732
:100DC000DEB7EEE00C941407FB01DC0102C00190D9
:100DD0000D9241505040D8F70895FB01DC0101907D
:100DE0000D920020E1F708952F923F924F925F926B
:100DF0006F927F928F929F92AF92BF92CF92DF922B
:100E0000EF92FF920F931F93CF93DF93CDB7DEB78F
:100E1000CA1BDB0B0FB6F894DEBF0FBECDBF099423
:100E20002A88398848885F846E847D848C849B847A
:100E3000AA84B984C884DF80EE80FD800C811B8188
:100E4000AA81B981CE0FD11D0FB6F894DEBF0FBEB7
:100E5000CDBFED01089510E0CCE6D0E004C0FE0166
:100E60000E94EF042296CE36D107C9F7F894FFCF3F
:100E70000000DF01800054657374696E67206F6E37
:100E8000204D6179203137746800000000009E0217
:0A0E90006503200239022B027C02E8
:00000001FF
