:100000000C945E000C9486000C9486000C94860080
:100010000C9486000C9486000C9486000C948D043D
:100020000C9486000C9486000C9486000C94E805D1
:100030000C9486000C9486000C9486000C94860028
:100040000C94E90A0C9486000C94C50B0C94F70BE5
:100050000C9486000C9486000C9486000C94860008
:100060000C9486000C948600000000080002010039
:100070000003040700000000000000000102040863
:100080001020408001020408102001020408102002
:10009000040404040404040402020202020203032E
:1000A0000303030300000000250028002B000000CC
:1000B0000000240027002A001C04270C11241FBE66
:1000C000CFEFD8E0DEBFCDBF11E0A0E0B1E0E4EEBD
:1000D000FFE102C005900D92A832B107D9F722E0E6
:1000E000A8E2B1E001C01D92AB3FB207E1F710E01A
:1000F000CCEBD0E004C02297FE010E94DD0FC83B8C
:10010000D107C9F70E94270D0C94F00F0C94000042
:10011000CF93DF93CAE0D1E061E088810E94540A66
:1001200061E088810E941B0A26E040E855E260E019
:1001300070E08EE592E00E94190E80E00E94480572
:1001400069E070E080E591E00E943E076CEB72E0B0
:1001500080E591E00E94440781E090E0909349019E
:1001600080934801609110017091110186E00E9416
:100170008A0A60910E0170910F0185E00E948A0A3F
:1001800040E060910C0184E00E9470058EE292E0F4
:100190000E94770764E670E080E090E00E94620BC6
:1001A00062E370E08EE292E00E94880761E08DE0F9
:1001B0000E941B0A0E94330B6093290170932A014D
:1001C00080932B0190932C01DF91CF9108950F9391
:1001D0001F93809128018823E9F08A3010F0109253
:1001E00028010E94330B0091290110912A012091CE
:1001F0002B0130912C01601B710B820B930B62332E
:1002000071058105910558F18091280180FF27C073
:1002100060E03DC00E94330B0091290110912A013A
:1002200020912B0130912C01601B710B820B930BE1
:10023000603D774081059105E0F181E080932801E0
:1002400061E08DE00E94540A0E94330B6093290103
:1002500070932A0180932B0190932C012AC00E9455
:10026000330B0091290110912A0120912B0130912B
:100270002C01601B710B820B930B6233710581059E
:100280009105B8F08091280180FD13C061E08DE0F8
:100290000E94540A0E94330B6093290170932A0133
:1002A00080932B0190932C01809128018F5F809384
:1002B00028011F910F910895DF92EF92FF920F9303
:1002C0001F93CF93DF93109241011092420110923D
:1002D000430110924401C5E0D0E084E6D82EEE241C
:1002E000E394F12CD09245010E94330B60933501C9
:1002F0007093360180933701909338011092320148
:100300001092310180914501882361F124E030E0B1
:1003100040E050E062E670E08EE292E00E946909FF
:100320008093450161E070E080E090E00E94620B04
:100330000E94330B00913501109136012091370155
:1003400030913801601B710B820B930B6436710581
:1003500081059105B8F2F0923201E09231011092DC
:100360004501D0CF8091310190913201892B71F2FA
:1003700080912D0190912E01019690932E018093F2
:100380002D01D09245010E94330B6093350170938B
:100390003601809337019093380110923401109206
:1003A000330180914501882359F106E411E022E0F0
:1003B0004FE862E68EE292E00E946B09809345016D
:1003C00061E070E080E090E00E94620B0E94330BDD
:1003D000009135011091360120913701309138019B
:1003E000601B710B820B930B6436710581059105BF
:1003F000C0F2F0923401E092330110924501D1CF66
:100400008091330190913401892B79F280912D01F3
:1004100090912E01019690932E0180932D012197AA
:1004200009F060CF20912F01309130012330310548
:10043000DCF0442737FD4095542F609141017091C5
:10044000420180914301909144010E94AE0F20939C
:100450004101309342014093430150934401109273
:10046000300110922F010CC08FEF97EEA6E7B8E491
:100470008093410190934201A0934301B0934401C2
:100480008091410190914201DF91CF911F910F9195
:10049000FF90EF90DF90089520913F01309140014F
:1004A0002115310581F08091100190911101820F89
:1004B000931F9C01215031092E3F310520F4909368
:1004C00011018093100120913D0130913E012115D1
:1004D000310581F080910E0190910F01820F931FE1
:1004E0009C01215031092E3F310520F490930F01DA
:1004F00080930E0120913B0130913C012115310583
:1005000081F080910C0190910D01820F931F9C014D
:10051000215031092E3F310520F490930D01809335
:100520000C01609110017091110186E00E948A0A0D
:1005300060910E0170910F0185E00E948A0A40E0EF
:1005400060910C0184E00C947005809148019091B9
:1005500049018F30910509F48BC064F48530910511
:1005600009F442C08A30910509F461C0019709F08D
:100570004BC10CC08931910509F4C8C08E31910579
:1005800009F4F2C0449709F03FC193C080914E0135
:1005900090914F018F30910509F4C8C04CF485301B
:1005A000910509F4B0C08A30910509F47FC02CC1CF
:1005B0008931910509F459C08E31910591F0449724
:1005C00009F022C184EA96E090934D0180934C019A
:1005D00080ED97E090934B0180934A0184E190E095
:1005E0000FC124EA36E0B9C080914E0190914F01CD
:1005F0008F30910509F45AC04CF48130910509F40B
:10060000E7C08A30910509F47EC0FEC089319105AA
:1006100041F08E31910541F08431910509F0F4C02B
:1006200085C024EA36E0CDC024EA36E0B8C0809127
:100630004E0190914F018F30910509F464C04CF444
:100640008130910509F4C4C08530910509F4CCC00E
:10065000DBC08931910509F469C08E31910529F01B
:100660008431910509F0D0C021C024EA36E0A0C051
:1006700080914E0190914F018A30910509F4B4C0E8
:100680004CF48130910509F491C08530910509F44D
:10069000A2C0BAC08931910549F08E31910509F4A3
:1006A00045C08431910509F0AFC02DC024EA36E081
:1006B00094C080914E0190914F018A30910509F4C8
:1006C0008AC04CF48130910509F470C085309105E1
:1006D00009F47EC099C089319105A9F08E31910548
:1006E00029F10F9709F090C08CEB92E090934D01A7
:1006F00080934C0184EF91E090934B0180934A01E9
:100700008FE090E07DC024EA36E070C080914E0119
:1007100090914F018A30910509F45AC084F08431D8
:10072000910509F461C08E31910581F424EA36E027
:1007300030934D0120934C012CED35E05DC08130AC
:10074000910549F085309105D1F15EC08F3091055A
:1007500009F05AC040C02CEB32E030934D01209399
:100760004C0128EB3BE048C080914E0190914F0135
:100770008A30910521F13CF48130910571F085308A
:100780009105A1F041C08431910529F1893191058C
:1007900059F18F309105C1F51BC02CEB32E030933D
:1007A0004D0120934C012CEA3DE026C02CEB32E0B9
:1007B00030934D0120934C0124EC39E01DC02CEB0B
:1007C00032E030934D0120934C0120ED37E014C00E
:1007D0002CEB32E0ADCF2CEB32E030934D01209387
:1007E0004C0128EE33E008C02CEB32E030934D0191
:1007F00020934C0124EF31E030934B0120934A01C8
:10080000909349018093480160914C0170914D0192
:1008100080E591E00E94440760914A0170914B018C
:10082000882777FD8095982F0E94620B6CED75E00C
:1008300080E591E00C94440780E591E00C94A406D7
:100840000E94E7008EE592E00E94360D1816190608
:100850000CF061C08EE592E00E944F0D282F3327E7
:1008600027FD309530933A0120933901803709F400
:1008700048C08CF48736F1F08C3609F048C00E94ED
:100880005C014AE050E0BC018EE592E00E94890FD5
:1008900063E171E038C0823741F18A37C1F58EE5F6
:1008A00092E00E94230D70934F0160934E010E94CD
:1008B000A5022DC08EE592E00E94230D70934001A9
:1008C00060933F018EE592E00E94230D70933E01FC
:1008D00060933D018EE592E00E94230D70933C01F0
:1008E00060933B010E944C0212C068EE73E080E00E
:1008F00090E00E94620B60E080910A010E94540A1D
:1009000006C065E171E08EE592E00E94D40E10927F
:100910003A01109239010C94E7001F920F920FB622
:100920000F921124CF92DF92FF920F931F932F9378
:100930003F934F935F936F937F938F939F93AF9367
:10094000BF93CF93DF93EF93FF93809112018F5F5B
:1009500080931201882339F089E591E0E7E5F1E021
:10096000A4E5B1E05BC0E9E5F1E047E551E024E54D
:1009700031E088E5C82E81E0D82EABE5B1E0CD01AD
:100980000197EC01F880E601F11003C08C918823F7
:10099000F1F0888190E0608170E08C01061B170BFC
:1009A0001016110644F4FF2099F06F0D711D6817A1
:1009B000790774F40AC0012B59F01C91112341F0FE
:1009C000611B7109861797071CF4CB0101C0888150
:1009D00080838081882399F0E901688189819A81E7
:1009E000EC01611105C06881EA017881672B05C0BF
:1009F0007881EA01688160956723EC016883399604
:100A0000475F5F4F275F3F4FD9E0CD0ED11C19964E
:100A100082E0ED30F80709F0B2CF9ECFED012197CB
:100A2000288127FD16C020911201EC013881321374
:100A300010C02C911196CD91DC911297211105C017
:100A4000388120812095232303C028813081232BE6
:100A50002883099639961996D2E0EB30FD07F1F616
:100A6000FF91EF91DF91CF91BF91AF919F918F91C6
:100A70007F916F915F914F913F912F911F910F91B6
:100A8000FF90DF90CF900F900FBE0F901F901895A2
:100A9000CF93DF9391E097BB92E09093B100909356
:100AA000B00022E82093B30090937000E4E5F1E0F9
:100AB000ABE5B1E09FEFEF0121979883108212829E
:100AC0001182ED01219718821C923996199622E025
:100AD000E830F20781F780930702DF91CF91089504
:100AE0001F93CF93DF93182F442329F01092B20065
:100AF0008FEF80931201E3E5F1E0A8E5B1E090E02B
:100B00008FEF208117FF05C027FF05C08F3F51F4ED
:100B100006C02113FBCF6C9317FDF8CF55C0208181
:100B200027FD892F9F5F39961996943151F717FD4C
:100B30004BC08F3F09F448C0282F332727FD30953D
:100B400099E08902F0011124ED5AFE4F1083809143
:100B500007028183412F552747FD5095FA01E05741
:100B6000FF4FE491F0E0EE0FFF1FEC55FF4FC591F2
:100B7000D49199E0929FD001939FB00D1124AD5A6A
:100B8000BE4F1396DC93CE931297FA01E458FF4FB1
:100B90004491929FD001939FB00D1124AD5ABE4F46
:100BA00014964C93149715966C93811102C060E0D3
:100BB00001C061E0812F0E94540A61E0812FDF9122
:100BC000CF911F910C941B0ADF91CF911F91089533
:100BD0001F920F920FB60F9211242F933F934F93B2
:100BE0005F936F937F938F939F93AF93BF93EF9395
:100BF000FF938091090287FF05C010928500109233
:100C000084001AC020910902332727FD3095809176
:100C1000080290E0281739077CF48091090299278F
:100C200087FD9095FC01EE0FFF1FE80FF91FE65FAF
:100C3000FD4F808186FD15C0809109028F5F8093F2
:100C4000090220910902332727FD3095809108027F
:100C500090E028173907BCF4809109028C305CF1D0
:100C600012C080910902992787FD9095FC01EE0F33
:100C7000FF1FE80FF91FE65FFD4F808160E08F7373
:100C80000E94540AD9CF80918400909185000496E7
:100C900080349C4918F480E49CE905C0809184006C
:100CA00090918500049690938900809388008FEF3F
:100CB0008093090238C02091840030918500809192
:100CC0000902992787FD9095FC01EE0FFF1FE80FA1
:100CD000F91FE65FFD4F81819281820F931F9093F0
:100CE00089008093880080910902992787FD90955B
:100CF000FC01EE0FFF1FE80FF91FE65FFD4F80813B
:100D000086FF11C080910902992787FD9095FC010B
:100D1000EE0FFF1FE80FF91FE65FFD4F808161E0D6
:100D20008F730E94540AFF91EF91BF91AF919F91F1
:100D30008F917F916F915F914F913F912F910F9084
:100D40000FBE0F901F901895209108022C30A0F430
:100D500031E0320F30930802FC012083822F90E0B3
:100D6000FC01EE0FFF1FE80FF91FE65FFD4F88EB58
:100D70009BE09283818308952FEFFC0120830895E7
:100D8000DF92EF92FF920F931F93CF93DF93EC01CB
:100D9000D62E7A01890188818C3008F066C061E026
:100DA0008D2D0E941B0A8881A82FB0E0FD01EE0F57
:100DB000FF1FEA0FFB1FE65FFD4F2D2D2F73908164
:100DC000907C922B908360E272E06E197F0977FF2E
:100DD00002C06D5F7F4F75956795759567956983BF
:100DE00040E659E0401B510B57FF02C04D5F5F4F7B
:100DF00055954795559547954A836CE00E94A20FFB
:100E00009CE0899FB001112420E030E0A901460F49
:100E1000571FFA01EE0FFF1FE40FF51FE65FFD4FAE
:100E2000908196FD16C02F5F3F4F2C30310571F732
:100E300081110FC01092800082E080938100109297
:100E4000850010928400B19A80916F008260809337
:100E50006F00888190E0FC01EE0FFF1FE80FF91F83
:100E6000E65FFD4F8081806480838881DF91CF9130
:100E70001F910F91FF90EF90DF90089520E639E0E9
:100E800040E252E00C94C006FC0180818C3070F589
:100E9000918128E830E0291B310997FD3395220F15
:100EA000331F220F331F621773077CF0928128E5EE
:100EB00032E0291B310997FD3395220F331F220F92
:100EC000331F621773070CF49B0122503109220F64
:100ED000331F4FB7F89490E0FC01EE0FFF1FE80FAF
:100EE000F91FE65FFD4F328321834FBF0895449A77
:100EF000459AE9EBF0E080818E7F808380818D7F51
:100F0000808388E48093B80084E48093BC000895D3
:100F100070935102609350020895CF92DF92EF9246
:100F2000FF920F931F930E94330B6B017C0184EAA5
:100F30008093BC0080915002909151022091BC009E
:100F400027FD1BC00097D1F30E94330B6C197D095C
:100F50008E099F0940915002509151028A0120E070
:100F600030E0601771078207930720F31092BC00EE
:100F700084E48093BC0081E01CC08091B900887F2C
:100F8000883029F08091B900887F803111F480E0A9
:100F900010C08091B900887F883341F48091B900F6
:100FA0001092BC0094E49093BC0002C08091B90000
:100FB000887F1F910F91FF90EF90DF90CF90089561
:100FC000CF92DF92EF92FF920F931F93CF93C62F92
:100FD0000E94330B6B017C01CC2311F084EC01C027
:100FE00084E88093BC00809150029091510220913E
:100FF000BC0027FD1BC00097D1F30E94330B6C1976
:101000007D098E099F0940915002509151028A0139
:1010100020E030E0601771078207930720F31092F9
:10102000BC0084E48093BC0081E010C08091B900D2
:10103000887F883341F48091B9001092BC0094E419
:101040009093BC0002C08091B900887FCF911F911E
:101050000F91FF90EF90DF90CF900895CF92DF92A5
:10106000EF92FF920F931F930E94330B6B017C0151
:1010700084E98093BC0080915002909151022091AC
:10108000BC0024FF1BC00097D1F30E94330B6C19E6
:101090007D098E099F0940915002509151028A01A9
:1010A00020E030E0601771078207930720F3109269
:1010B000BC0084E48093BC0081E001C080E01F910B
:1010C0000F91FF90EF90DF90CF900895CF92DF9235
:1010D000EF92FF920F931F93CF93DF93EC016093F6
:1010E000BB000E94330B6B017C0184E88093BC0041
:1010F00080915002909151022091BC0027FD1BC0AD
:101100000097D1F30E94330B6C197D098E099F095A
:101110002091500230915102890120E030E06017A7
:1011200071078207930720F31092BC0084E4809338
:10113000BC0081E024C08091B900887F883129F00B
:101140008091B900887F803411F480E018C010913C
:10115000B900187F8091B900887F803229F0809192
:10116000B900887F883429F4CE010E942E08812F8F
:1011700006C01092BC0084E48093BC00F8CFDF91DD
:10118000CF911F910F91FF90EF90DF90CF90089536
:10119000CF92DF92EF92FF920F931F93CF93DF9343
:1011A000EC016093BB000E94330B6B017C0184E86F
:1011B0008093BC0080915002909151022091BC001C
:1011C00027FD1BC00097D1F30E94330B6C197D09DA
:1011D0008E099F092091500230915102890120E02F
:1011E00030E0601771078207930720F31092BC006C
:1011F00084E48093BC0081E019C08091B900887FAD
:10120000883299F01091B900187F8091B900887FD9
:10121000803321F4CE010E942E0805C01092BC003C
:1012200084E48093BC00812F01C080E0DF91CF91E6
:101230001F910F91FF90EF90DF90CF900895EF9264
:10124000FF920F931F93CF93DF931F92CDB7DEB71B
:101250007C01042F122FFC01108269830E948D07EC
:10126000F7018083698181112CC0660FC7010E943C
:101270006608F7018083882321F0813011F582E030
:1012800020C0602FC7010E94C808F701808388230F
:1012900021F08130B1F483E014C0612FC7010E94B6
:1012A000C808F70180838111F4CFC7010E942E087E
:1012B000F7018083882321F0813019F487E001C091
:1012C00080E00F90DF91CF911F910F91FF90EF90F1
:1012D00008950C941F09DF92EF92FF920F931F93D2
:1012E000CF93DF93EC01F62EE42ED22E109254020F
:1012F00010925302211102C0DD24D3948FEF8D0D83
:1013000089831882CE010E948D078883811162C073
:10131000FF0C6F2DCE010E9466088883882329F078
:10132000813009F057C082E055C06E2DCE010E9479
:10133000C8088883882329F0813009F04BC083E0F6
:1013400049C0CE010E948D078883882329F081300F
:1013500009F040C084E03EC061E06F0DCE010E9404
:1013600066088883811103C0780110E019C08130BC
:1013700089F585E02FC060E0CE010E94E0078883F8
:101380008130C1F0883531F58091BB00F701819340
:101390007F011F5F10935402109352021D1579F0C4
:1013A0008981181741F361E0CE010E94E00788832C
:1013B000813011F486E00EC0803531F30BC0CE01D0
:1013C0000E942E088883882321F0813019F487E059
:1013D00001C080E0DF91CF911F910F91FF90EF90BE
:1013E000DF900895833081F028F4813099F08230C5
:1013F000A1F008958730A9F08830B9F08430D1F495
:10140000809180008F7D03C0809180008F778093D2
:101410008000089584B58F7702C084B58F7D84BD28
:1014200008958091B0008F7703C08091B0008F7DC8
:101430008093B0000895CF93DF9390E0FC01E458CF
:10144000FF4F2491FC01E057FF4F8491882349F11D
:1014500090E0880F991FFC01E255FF4FA591B491D0
:101460008C559F4FFC01C591D4919FB7611108C065
:10147000F8948C91209582238C93888182230AC0D2
:10148000623051F4F8948C91322F309583238C93F1
:101490008881822B888304C0F8948C91822B8C9352
:1014A0009FBFDF91CF9108950F931F93CF93DF9349
:1014B0001F92CDB7DEB7282F30E0F901E859FF4F72
:1014C0008491F901E458FF4F1491F901E057FF4F5F
:1014D00004910023C9F0882321F069830E94F20956
:1014E0006981E02FF0E0EE0FFF1FEC55FF4FA59153
:1014F000B4919FB7F8948C91611103C0109581232A
:1015000001C0812B8C939FBF0F90DF91CF911F91D2
:101510000F9108951F93CF93DF93182FEB0161E094
:101520000E941B0A209711F460E004C0CF3FD10550
:1015300039F461E0812FDF91CF911F910C94540A0F
:10154000E12FF0E0E859FF4FE491E330F9F048F47F
:10155000E130B9F0E230A1F584B5806284BDC8BD48
:1015600034C0E730E9F0E83019F1E43049F5809112
:101570008000806280938000D0938B00C0938A00AB
:1015800024C084B5806884BDC7BD1FC08091800021
:10159000806880938000D0938900C093880015C034
:1015A0008091B00080688093B000C093B3000DC0FC
:1015B0008091B00080628093B000C093B40005C0F9
:1015C000C038D1050CF0B5CFAFCFDF91CF911F91CF
:1015D00008951F920F920FB60F9211242F933F93ED
:1015E0008F939F93AF93BF93809156029091570230
:1015F000A0915802B09159023091550223E0230F77
:101600002D3720F40196A11DB11D05C026E8230F3A
:101610000296A11DB11D209355028093560290930E
:101620005702A0935802B093590280915A029091A8
:101630005B02A0915C02B0915D020196A11DB11DFB
:1016400080935A0290935B02A0935C02B0935D0278
:10165000BF91AF919F918F913F912F910F900FBEAE
:101660000F901F9018952FB7F894609156027091C3
:10167000570280915802909159022FBF08953FB7A9
:10168000F89480915A0290915B02A0915C02B09113
:101690005D0226B5A89B05C02F3F19F00196A11D3C
:1016A000B11D3FBF6627782F892F9A2F620F711DBA
:1016B000811D911D42E0660F771F881F991F4A9573
:1016C000D1F70895CF92DF92EF92FF92CF93DF93FD
:1016D0006B017C010E943F0BEB01C114D104E104BA
:1016E000F10489F00E94A10F0E943F0B6C1B7D0B3F
:1016F000683E734090F381E0C81AD108E108F10810
:10170000C851DC4FEACFDF91CF91FF90EF90DF908F
:10171000CF900895789484B5826084BD84B581604B
:1017200084BD85B5826085BD85B5816085BDEEE6E9
:10173000F0E0808181608083E1E8F0E010828081C8
:1017400082608083808181608083E0E8F0E0808136
:1017500081608083E1EBF0E0808184608083E0EB56
:10176000F0E0808181608083EAE7F0E0808184603E
:10177000808380818260808380818160808380819A
:10178000806880831092C10008951F920F920FB657
:101790000F9211242F938F939F93EF93FF93E091D8
:1017A0006E02F0916F028081E0917402F0917502F7
:1017B00082FD12C09081809177028F5F8F7320919C
:1017C0007802821751F0E0917702F0E0E25AFD4F83
:1017D000958F8093770201C08081FF91EF919F9157
:1017E0008F912F910F900FBE0F901F9018951F9201
:1017F0000F920FB60F9211242F933F934F935F9345
:101800006F937F938F939F93AF93BF93EF93FF93C8
:101810008EE592E00E94710DFF91EF91BF91AF9123
:101820009F918F917F916F915F914F913F912F91F8
:101830000F900FBE0F901F9018958EE592E00E94BA
:10184000360D21E0892B09F420E0822F08951092B3
:1018500061021092600288EE93E0A0E0B0E0809315
:10186000620290936302A0936402B09365028BE1DD
:1018700091E090935F0280935E0285EC90E09093FC
:101880006B0280936A0284EC90E090936D028093E7
:101890006C0280EC90E090936F0280936E0281EC7A
:1018A00090E0909371028093700282EC90E09093AC
:1018B00073028093720286EC90E09093750280939D
:1018C00074021092770210927802109279021092AC
:1018D0007A0208950F931F93CF93DF93EC010E9438
:1018E000330B688779878A879B87E881F981008431
:1018F000F185E02DCE01099597FF15C00E94330BAD
:10190000088519852A853B85601B710B820B930B1B
:101910000C811D812E813F8160177107820793071B
:1019200020F38FEF9FEFDF91CF911F910F910895DB
:10193000CF93DF93EC01CE010E946A0C97FD11C09A
:101940008D32910571F09C01205331092A30310507
:1019500040F0E881F9810680F781E02DCE010995FC
:10196000EACFDF91CF910895CF92DF92FF920F934C
:101970001F93CF93DF9300D000D0CDB7DEB76C01BB
:10198000062F0E94980CFC0197FD4BC020E030E030
:10199000A901F12C112707FD1095E017F107E9F0D7
:1019A000ED32F105C1F0CF01C0970A97B0F4AAE07B
:1019B000B0E00E94D00F9B01AC01CF01AA2797FD98
:1019C000A095BA2F280F391F4A1F5B1F20533109DA
:1019D0004109510902C0FF24F394D601ED91FC9115
:1019E0000680F781E02DC60129833A834B835C830F
:1019F0000995C6010E946A0CFC01C09729813A81B1
:101A00004B815C810A9748F2E017F10731F2FF2021
:101A100061F066277727CB01621B730B840B950B54
:101A200006C060E070E0CB0102C0CA01B9010F90AE
:101A30000F900F900F90DF91CF911F910F91FF901A
:101A4000DF90CF90089561E00C94B40C08950E944B
:101A50008A0B0E94260D0E948800C3E6DDE00E94EA
:101A600020042097E1F30E94630DF9CFFC01818DE2
:101A7000228D90E0805C9F4F821B91098F73992784
:101A80000895FC01918D828D981731F0828DE80FB9
:101A9000F11D858D90E008958FEF9FEF0895FC0173
:101AA000918D828D981761F0828DDF01A80FB11D95
:101AB0005D968C91928D9F5F9F73928F90E00895B9
:101AC0008FEF9FEF08958DE19CE0892B49F080E036
:101AD00090E0892B29F00E941D0C81110C940000CC
:101AE0000895FC01848DDF01A80FB11DA35ABF4FDB
:101AF0002C91848D90E001968F739927848FA6890D
:101B0000B7892C93A089B1898C9180648C93938D33
:101B1000848D981306C00288F389E02D80818F7D23
:101B200080830895CF93DF93EC01888D8823C9F0DB
:101B3000EA89FB89808185FD05C0A889B9898C91D6
:101B400086FD0FC00FB607FCF5CF808185FFF2CF71
:101B5000A889B9898C9185FFEDCFCE010E94710DC6
:101B6000E7CFDF91CF910895CF92DF92FF920F934D
:101B70001F93CF93DF931F92CDB7DEB76C01DC01CB
:101B80005B969C915B975C968C915C97981307C0D1
:101B90005096ED91FC915197808185FD32C0F60100
:101BA000038D10E00F5F1F4F0F731127F02EF6010A
:101BB000848DF81211C00FB607FCF9CFD6015096EC
:101BC000ED91FC915197808185FFF1CFC60169832A
:101BD0000E94710D6981EBCF838DE80FF11DE35AEF
:101BE000FF4F6083D6015B960C935B975296ED9105
:101BF000FC91539780818062808381E058968C931A
:101C00000DC0D6015696ED91FC9157976083509682
:101C1000ED91FC91519780818064808381E090E018
:101C20000F90DF91CF911F910F91FF90DF90CF9098
:101C30000895BF92CF92DF92EF92FF92CF93DF93FE
:101C4000EC016A017B01B22EE889F98982E0808388
:101C5000411581EE580761057105A1F060E079E05A
:101C60008DE390E0A70196010E94AE0F215031094B
:101C7000410951095695479537952795211580E1DA
:101C8000380798F0E889F989108260E874E88EE1F5
:101C900090E0A70196010E94AE0F21503109410941
:101CA00051095695479537952795EC85FD853083E5
:101CB000EE85FF852083188EEC89FD89B082EA8944
:101CC000FB89808180618083EA89FB8980818860CB
:101CD0008083EA89FB89808180688083EA89FB8927
:101CE00080818F7D8083DF91CF91FF90EF90DF9097
:101CF000CF90BF900895CF92DF92EF92FF920F9313
:101D00001F93CF93DF936C017A01EB01E60EF71E70
:101D100000E010E0CE15DF0561F06991D601ED918C
:101D2000FC910190F081E02DC6010995080F191F63
:101D3000F1CFC801DF91CF911F910F91FF90EF90EC
:101D4000DF90CF9008956115710581F0DB010D9052
:101D50000020E9F7AD0141505109461B570BDC014A
:101D6000ED91FC910280F381E02D099480E090E0F8
:101D70000895DC01ED91FC910190F081E02D099432
:101D80000F931F93CF93DF93EC016DE00E94B90E88
:101D90008C016AE0CE010E94B90E800F911FDF9185
:101DA000CF911F910F9108950F931F93CF93DF93BE
:101DB000EC010E94A30E8C01CE010E94C00E800F88
:101DC000911FDF91CF911F910F9108958F929F9254
:101DD000AF92BF92CF92DF92EF92FF920F931F9339
:101DE000CF93DF93CDB7DEB7A1970FB6F894DEBFE0
:101DF0000FBECDBF7C01C42EE52FCB01D22E19A280
:101E000021E02D1510F02AE0D22E8E010F5D1F4F1C
:101E10008D2C912CA12CB12C6C2D7E2FA501940121
:101E20000E94AE0F8C2DD29E8019112401501109F1
:101E30008A3014F4805D01C0895CF801808321152B
:101E400031054105510521F0C22EE32FCA01E4CF2F
:101E5000B801C7010E94A30EA1960FB6F894DEBF89
:101E60000FBECDBFDF91CF911F910F91FF90EF90EB
:101E7000DF90CF90BF90AF909F908F900895CF92BA
:101E8000DF92EF92FF920F931F93CF93DF93EC01BA
:101E90006A017B012115310579F4E881F98101900E
:101EA000F081E02D642FDF91CF911F910F91FF9072
:101EB000EF90DF90CF9009942A303105E9F477FF55
:101EC0001AC06DE20E94B90E8C0144275527BA0151
:101ED0004C195D096E097F092AE0CE010E94E60EC9
:101EE000800F911FDF91CF911F910F91FF90EF9085
:101EF000DF90CF9008952AE0B701A601CE01DF91CF
:101F0000CF911F910F91FF90EF90DF90CF900C94A5
:101F1000E60E0F931F93CF93DF93EC019A01AB0171
:101F2000662757FD6095762F0E943F0F8C01CE01EA
:101F30000E94C00E800F911FDF91CF911F910F91D2
:101F400008950895991B79E004C0991F961708F029
:101F5000961B881F7A95C9F780950895A1E21A2EDD
:101F6000AA1BBB1BFD010DC0AA1FBB1FEE1FFF1F3D
:101F7000A217B307E407F50720F0A21BB30BE40B8D
:101F8000F50B661F771F881F991F1A9469F76095D4
:101F90007095809590959B01AC01BD01CF0108958E
:101FA0000E94E10FA59F900DB49F900DA49F800DFE
:101FB000911D11240895EE0FFF1F0590F491E02D5F
:101FC0000994A29FB001B39FC001A39F700D811D12
:101FD0001124911DB29F700D811D1124911D089532
:041FE000F894FFCFA3
:101FE4000000FB028000010000000C007F007F0065
:101FF400FE00FF5100700000000000B40D7B0E369F
:082004000D4F0D410D920D007E
:00000001FF
