:100000000C945E000C9486000C9486000C94860080
:100010000C9486000C9486000C9486000C942004AA
:100020000C9486000C9486000C9486000C947B053E
:100030000C9486000C9486000C9486000C94860028
:100040000C9485090C9486000C949D0C0C94CF0C98
:100050000C9486000C9486000C9486000C94860008
:100060000C9486000C948600000000080002010039
:100070000003040700000000000000000102040863
:100080001020408001020408102001020408102002
:10009000040404040404040402020202020203032E
:1000A0000303030300000000250028002B000000CC
:1000B0000000240027002A00A703FF0C11241FBE04
:1000C000CFEFD8E0DEBFCDBF11E0A0E0B1E0EAE0C5
:1000D000FFE102C005900D92A832B107D9F722E0E6
:1000E000A8E2B1E001C01D92AF3EB207E1F710E017
:1000F000CCEBD0E004C02297FE010E94700FC83BF9
:10010000D107C9F70E94430D0C94830F0C94000093
:10011000CF93DF93CAE0D1E061E088810E94220B97
:1001200061E088810E94E90A26E040E855E260E04B
:1001300070E082E592E00E943B0C80E00E94DB04CC
:1001400069E070E084E491E00E94D1066CEB72E01B
:1001500084E491E00E94D70681E090E090933D0115
:1001600080933C01609110017091110186E00E9422
:10017000610A60910E0170910F0185E00E94610A91
:1001800040E060910C0184E00E94030582E292E06D
:100190000E940A0764E670E080E090E00E94FE0999
:1001A00062E370E082E292E00E941B0761E08DE072
:1001B0000E94E90A0E94CF096093290170932A01E5
:1001C00080932B0190932C01DF91CF9108950F9391
:1001D0001F93809128018823E9F08A3010F0109253
:1001E00028010E94CF090091290110912A01209134
:1001F0002B0130912C01601B710B820B930B62332E
:1002000071058105910558F18091280180FF27C073
:1002100060E03DC00E94CF090091290110912A01A0
:1002200020912B0130912C01601B710B820B930BE1
:10023000603D774081059105E0F181E080932801E0
:1002400061E08DE00E94220B0E94CF09609329019A
:1002500070932A0180932B0190932C012AC00E9455
:10026000CF090091290110912A0120912B01309191
:100270002C01601B710B820B930B6233710581059E
:100280009105B8F08091280180FD13C061E08DE0F8
:100290000E94220B0E94CF096093290170932A01CA
:1002A00080932B0190932C01809128018F5F809384
:1002B00028011F910F910895FF920F931F93CF93E1
:1002C000DF9310923501109236011092370110928F
:1002D0003801C5E0D0E094E6F92EF0923901809122
:1002E0003901882399F024E030E040E050E062E6F4
:1002F00070E082E292E00E94FC088093390161E0A4
:1003000070E080E090E00E94FE09E9CFF0923901B0
:1003100080913901882391F00AE311E022E04FE84F
:1003200062E682E292E00E94FE088093390161E079
:1003300070E080E090E00E94FE09EACF60913A010F
:1003400070E0762F662780913B01680F711D88272A
:1003500077FD8095982F00913501109136012091FD
:10036000370130913801600F711F821F931F609316
:1003700035017093360180933701909338012197AE
:1003800009F0ABCF25E030E040E050E00E94410FA3
:100390002093350130933601409337015093380153
:1003A000C901DF91CF911F910F91FF900895209186
:1003B0003301309134012115310581F08091100114
:1003C00090911101820F931F9C01215031092E3F02
:1003D000310520F490931101809310012091310197
:1003E000309132012115310581F080910E019091FB
:1003F0000F01820F931F9C01215031092E3F3105BF
:1004000020F490930F0180930E0120912F013091E1
:1004100030012115310581F080910C0190910D0181
:10042000820F931F9C01215031092E3F310520F48A
:1004300090930D0180930C01609110017091110156
:1004400086E00E94610A60910E0170910F0185E0C3
:100450000E94610A40E060910C0184E00C94030565
:1004600080913C0190913D018F30910509F48BC042
:1004700064F48530910509F442C08A30910509F48D
:1004800061C0019709F04BC10CC08931910509F495
:10049000C8C08E31910509F4F2C0449709F03FC1FC
:1004A00093C080914201909143018F30910509F4EE
:1004B000C8C04CF48530910509F4B0C08A3091056C
:1004C00009F47FC02CC18931910509F459C08E31DE
:1004D000910591F0449709F022C184EA96E0909347
:1004E00041018093400180ED97E090933F0180931C
:1004F0003E0184E190E00FC124EA36E0B9C080916A
:100500004201909143018F30910509F45AC04CF497
:100510008130910509F4E7C08A30910509F47EC065
:10052000FEC08931910541F08E31910541F0843151
:10053000910509F0F4C085C024EA36E0CDC024EA74
:1005400036E0B8C080914201909143018F3091050F
:1005500009F464C04CF48130910509F4C4C08530BD
:10056000910509F4CCC0DBC08931910509F469C05B
:100570008E31910529F08431910509F0D0C021C058
:1005800024EA36E0A0C080914201909143018A3074
:10059000910509F4B4C04CF48130910509F491C07F
:1005A0008530910509F4A2C0BAC08931910549F09E
:1005B0008E31910509F445C08431910509F0AFC031
:1005C0002DC024EA36E094C080914201909143010D
:1005D0008A30910509F48AC04CF48130910509F400
:1005E00070C08530910509F47EC099C089319105AC
:1005F000A9F08E31910529F10F9709F090C08CEB8D
:1006000092E0909341018093400184EF91E09093B8
:100610003F0180933E018FE090E07DC024EA36E008
:1006200070C080914201909143018A30910509F494
:100630005AC084F08431910509F461C08E3191056E
:1006400081F424EA36E030934101209340012CEDFF
:1006500035E05DC08130910549F085309105D1F1DB
:100660005EC08F30910509F05AC040C02CEB32E0DB
:10067000309341012093400128EB3BE048C080913A
:100680004201909143018A30910521F13CF481307F
:10069000910571F085309105A1F041C0843191053B
:1006A00029F18931910559F18F309105C1F51BC0B0
:1006B0002CEB32E030934101209340012CEA3DE0E5
:1006C00026C02CEB32E0309341012093400124EC12
:1006D00039E01DC02CEB32E0309341012093400102
:1006E00020ED37E014C02CEB32E0ADCF2CEB32E044
:1006F000309341012093400128EE33E008C02CEBF9
:1007000032E0309341012093400124EF31E03093F7
:100710003F0120933E0190933D0180933C01609105
:1007200040017091410184E491E00E94D7066091FC
:100730003E0170913F01882777FD8095982F0E9498
:10074000FE096CED75E084E491E00C94D70684E436
:1007500091E00C9437060E94E70082E592E00E9447
:10076000580B181619060CF069C082E592E00E9439
:10077000710B282F332727FD309530932E012093BE
:100780002D01803709F450C0CCF4873631F18C3616
:1007900009F050C04AE050E064E772E782E592E079
:1007A0000E94600E0E945C014AE050E0BC0182E5BC
:1007B00092E00E94600E63E171E038C0823741F13F
:1007C0008A37C1F582E592E00E94310F70934301B0
:1007D000609342010E9430022DC082E592E00E94A7
:1007E000310F709334016093330182E592E00E94EF
:1007F000310F709332016093310182E592E00E94E3
:10080000310F7093300160932F010E94D70112C005
:1008100068EE73E080E090E00E94FE0960E0809165
:100820000A010E94220B06C065E171E082E592E0B8
:100830000E94AB0D10922E0110922D010C94E70036
:100840001F920F920FB60F921124CF92DF92FF9258
:100850000F931F932F933F934F935F936F937F93C8
:100860008F939F93AF93BF93CF93DF93EF93FF93B8
:10087000809112018F5F80931201882339F08DE4FB
:1008800091E0EBE4F1E0A8E4B1E05BC0EDE4F1E07D
:100890004BE451E028E431E08CE4C82E81E0D82E0E
:1008A000AFE4B1E0CD010197EC01F880E601F11071
:1008B00003C08C918823F1F0888190E0608170E022
:1008C0008C01061B170B1016110644F4FF2099F03B
:1008D0006F0D711D6817790774F40AC0012B59F068
:1008E0001C91112341F0611B7109861797071CF4B5
:1008F000CB0101C0888180838081882399F0E90140
:10090000688189819A81EC01611105C06881EA01E1
:100910007881672B05C07881EA016881609567233B
:10092000EC0168833996475F5F4F275F3F4FD9E0FF
:10093000CD0ED11C199682E0E130F80709F0B2CF54
:100940009ECFED012197288127FD16C0209112012D
:10095000EC013881321310C02C911196CD91DC91AD
:100960001297211105C0388120812095232303C0CF
:1009700028813081232B2883099639961996D1E056
:10098000EF3FFD07F1F6FF91EF91DF91CF91BF911E
:10099000AF919F918F917F916F915F914F913F9117
:1009A0002F911F910F91FF90DF90CF900F900FBE6E
:1009B0000F901F901895CF93DF9391E097BB92E033
:1009C0009093B1009093B00022E82093B3009093ED
:1009D0007000E8E4F1E0AFE4B1E09FEFEF012197B0
:1009E0009883108212821182ED01219718821C9245
:1009F0003996199621E0EC3FF20781F78093FB01CD
:100A0000DF91CF9108951F93CF93DF93182F442345
:100A100029F01092B2008FEF80931201E7E4F1E029
:100A2000ACE4B1E090E08FEF208117FF05C027FF15
:100A300005C08F3F51F406C02113FBCF6C9317FD07
:100A4000F8CF55C0208127FD892F9F5F39961996D1
:100A5000943151F717FD4BC08F3F09F448C0282F40
:100A6000332727FD309599E08902F0011124E95BD5
:100A7000FE4F10838091FB018183412F552747FD55
:100A80005095FA01E057FF4FE491F0E0EE0FFF1FA1
:100A9000EC55FF4FC591D49199E0929FD001939F5F
:100AA000B00D1124A95BBE4F1396DC93CE93129721
:100AB000FA01E458FF4F4491929FD001939FB00DEB
:100AC0001124A95BBE4F14964C93149715966C9302
:100AD000811102C060E001C061E0812F0E94220B01
:100AE00061E0812FDF91CF911F910C94E90ADF9192
:100AF000CF911F9108951F920F920FB60F9211245C
:100B00002F933F934F935F936F937F938F939F9315
:100B1000AF93BF93EF93FF938091FD0187FF05C0D3
:100B200010928500109284001AC02091FD01332795
:100B300027FD30958091FC0190E0281739077CF45F
:100B40008091FD01992787FD9095FC01EE0FFF1F15
:100B5000E80FF91FE250FE4F808186FD15C080919D
:100B6000FD018F5F8093FD012091FD01332727FD5B
:100B700030958091FC0190E028173907BCF48091F2
:100B8000FD018C305CF112C08091FD01992787FD39
:100B90009095FC01EE0FFF1FE80FF91FE250FE4F8A
:100BA000808160E08F730E94220BD9CF80918400F6
:100BB00090918500049680349C4918F480E49CE967
:100BC00005C08091840090918500049690938900DF
:100BD000809388008FEF8093FD0138C020918400BE
:100BE000309185008091FD01992787FD9095FC014A
:100BF000EE0FFF1FE80FF91FE250FE4F8181928137
:100C0000820F931F90938900809388008091FD014B
:100C1000992787FD9095FC01EE0FFF1FE80FF91F44
:100C2000E250FE4F808186FF11C08091FD0199271F
:100C300087FD9095FC01EE0FFF1FE80FF91FE250B2
:100C4000FE4F808161E08F730E94220BFF91EF9134
:100C5000BF91AF919F918F917F916F915F914F91D4
:100C60003F912F910F900FBE0F901F9018952091DC
:100C7000FC012C30A0F431E0320F3093FC01FC0178
:100C80002083822F90E0FC01EE0FFF1FE80FF91F79
:100C9000E250FE4F88EB9BE09283818308952FEF13
:100CA000FC0120830895DF92EF92FF920F931F9330
:100CB000CF93DF93EC01D62E7A01890188818C30A5
:100CC00008F066C061E08D2D0E94E90A8881A82F96
:100CD000B0E0FD01EE0FFF1FEA0FFB1FE250FE4FD9
:100CE0002D2D2F739081907C922B908360E272E087
:100CF0006E197F0977FF02C06D5F7F4F759567950D
:100D000075956795698340E659E0401B510B57FF85
:100D100002C04D5F5F4F55954795559547954A835E
:100D20006CE00E94350F9CE0899FB001112420E007
:100D300030E0A901460F571FFA01EE0FFF1FE40F25
:100D4000F51FE250FE4F908196FD16C02F5F3F4F7A
:100D50002C30310571F781110FC01092800082E0B4
:100D6000809381001092850010928400B19A809146
:100D70006F00826080936F00888190E0FC01EE0F2D
:100D8000FF1FE80FF91FE250FE4F808180648083CF
:100D90008881DF91CF911F910F91FF90EF90DF90AD
:100DA000089520E639E040E252E00C945306FC013D
:100DB00080818C3070F5918128E830E0291B310961
:100DC00097FD3395220F331F220F331F62177307CE
:100DD0007CF0928128E532E0291B310997FD33959B
:100DE000220F331F220F331F621773070CF49B016E
:100DF00022503109220F331F4FB7F89490E0FC01C5
:100E0000EE0FFF1FE80FF91FE250FE4F32832183E0
:100E10004FBF0895449A459AE9EBF0E080818E7FB8
:100E2000808380818D7F808388E48093B80084E410
:100E30008093BC0008957093450260934402089526
:100E4000CF92DF92EF92FF920F931F930E94CF09F0
:100E50006B017C0184EA8093BC00809144029091F4
:100E600045022091BC0027FD1BC00097D1F30E94D2
:100E7000CF096C197D098E099F0940914402509158
:100E800045028A0120E030E060177107820793076E
:100E900020F31092BC0084E48093BC0081E01CC06D
:100EA0008091B900887F883029F08091B900887FCF
:100EB000803111F480E010C08091B900887F8833C0
:100EC00041F48091B9001092BC0094E49093BC006E
:100ED00002C08091B900887F1F910F91FF90EF9021
:100EE000DF90CF900895CF92DF92EF92FF920F9311
:100EF0001F93CF93C62F0E94CF096B017C01CC2397
:100F000011F084EC01C084E88093BC00809144021D
:100F1000909145022091BC0027FD1BC00097D1F3A2
:100F20000E94CF096C197D098E099F0940914402E6
:100F3000509145028A0120E030E060177107820776
:100F4000930720F31092BC0084E48093BC0081E0FE
:100F500010C08091B900887F883341F48091B90036
:100F60001092BC0094E49093BC0002C08091B90040
:100F7000887FCF911F910F91FF90EF90DF90CF90DE
:100F80000895CF92DF92EF92FF920F931F930E94EA
:100F9000CF096B017C0184E98093BC0080914402FD
:100FA000909145022091BC0024FF1BC00097D1F313
:100FB0000E94CF096C197D098E099F094091440256
:100FC000509145028A0120E030E0601771078207E6
:100FD000930720F31092BC0084E48093BC0081E06E
:100FE00001C080E01F910F91FF90EF90DF90CF90B4
:100FF0000895CF92DF92EF92FF920F931F93CF93BA
:10100000DF93EC016093BB000E94CF096B017C0170
:1010100084E88093BC008091440290914502209125
:10102000BC0027FD1BC00097D1F30E94CF096C19AB
:101030007D098E099F092091440230914502890162
:1010400020E030E0601771078207930720F31092C9
:10105000BC0084E48093BC0081E024C08091B9008E
:10106000887F883129F08091B900887F803411F41D
:1010700080E018C01091B900187F8091B900887F76
:10108000803229F08091B900887F883429F4CE011C
:101090000E94C107812F06C01092BC0084E4809397
:1010A000BC00F8CFDF91CF911F910F91FF90EF908F
:1010B000DF90CF900895CF92DF92EF92FF920F933F
:1010C0001F93CF93DF93EC016093BB000E94CF0985
:1010D0006B017C0184E88093BC0080914402909174
:1010E00045022091BC0027FD1BC00097D1F30E9450
:1010F000CF096C197D098E099F0920914402309116
:101100004502890120E030E06017710782079307EC
:1011100020F31092BC0084E48093BC0081E019C0ED
:101120008091B900887F883299F01091B900187FBA
:101130008091B900887F803321F4CE010E94C107DD
:1011400005C01092BC0084E48093BC00812F01C0D4
:1011500080E0DF91CF911F910F91FF90EF90DF9092
:10116000CF900895EF92FF920F931F93CF93DF9349
:101170001F92CDB7DEB77C01042F122FFC01108225
:1011800069830E942007F7018083698181112CC047
:10119000660FC7010E94F907F7018083882321F0B9
:1011A000813011F582E020C0602FC7010E945B08EA
:1011B000F7018083882321F08130B1F483E014C0EB
:1011C000612FC7010E945B08F70180838111F4CF72
:1011D000C7010E94C107F7018083882321F0813075
:1011E00019F487E001C080E00F90DF91CF911F914B
:1011F0000F91FF90EF9008950C94B208DF92EF9258
:10120000FF920F931F93CF93DF93EC01F62EE42E02
:10121000D22E1092480210924702211102C0DD2402
:10122000D3948FEF8D0D89831882CE010E94200701
:101230008883811162C0FF0C6F2DCE010E94F907D7
:101240008883882329F0813009F057C082E055C097
:101250006E2DCE010E945B088883882329F081309F
:1012600009F04BC083E049C0CE010E94200788836B
:10127000882329F0813009F040C084E03EC061E05D
:101280006F0DCE010E94F9078883811103C0780198
:1012900010E019C0813089F585E02FC060E0CE01F3
:1012A0000E94730788838130C1F0883531F58091C1
:1012B000BB00F70181937F011F5F109348021093D9
:1012C00046021D1579F08981181741F361E0CE01BE
:1012D0000E9473078883813011F486E00EC0803548
:1012E00031F30BC0CE010E94C1078883882321F00F
:1012F000813019F487E001C080E0DF91CF911F9128
:101300000F91FF90EF90DF9008951F920F920FB60C
:101310000F9211242F933F938F939F93AF93BF937B
:1013200080914A0290914B02A0914C02B0914D02E3
:101330003091490223E0230F2D3720F40196A11D9F
:10134000B11D05C026E8230F0296A11DB11D2093F3
:10135000490280934A0290934B02A0934C02B093AF
:101360004D0280914E0290914F02A0915002B09197
:1013700051020196A11DB11D80934E0290934F0220
:10138000A0935002B0935102BF91AF919F918F9162
:101390003F912F910F900FBE0F901F9018952FB770
:1013A000F89460914A0270914B0280914C029091A6
:1013B0004D022FBF08953FB7F89480914E0290914F
:1013C0004F02A0915002B091510226B5A89B05C0D2
:1013D0002F3F19F00196A11DB11D3FBF6627782F41
:1013E000892F9A2F620F711D811D911D42E0660F9A
:1013F000771F881F991F4A95D1F70895CF92DF92E2
:10140000EF92FF92CF93DF936B017C010E94DB0987
:10141000EB01C114D104E104F10489F00E94340FFE
:101420000E94DB096C1B7D0B683E734090F381E0EA
:10143000C81AD108E108F108C851DC4FEACFDF91A2
:10144000CF91FF90EF90DF90CF900895789484B57E
:10145000826084BD84B5816084BD85B5826085BDB0
:1014600085B5816085BDEEE6F0E080818160808396
:10147000E1E8F0E010828081826080838081816079
:101480008083E0E8F0E0808181608083E1EBF0E040
:10149000808184608083E0EBF0E0808181608083E4
:1014A000EAE7F0E0808184608083808182608083CD
:1014B0008081816080838081806880831092C100F8
:1014C00008951F93CF93DF93182FEB0161E00E94E3
:1014D000E90A209711F460E004C0CF3FD10539F448
:1014E00061E0812FDF91CF911F910C94220BE12FAE
:1014F000F0E0E859FF4FE491E330F9F048F4E130CF
:10150000B9F0E230A1F584B5806284BDC8BD34C0B5
:10151000E730E9F0E83019F1E43049F580918000D6
:10152000806280938000D0938B00C0938A0024C097
:1015300084B5806884BDC7BD1FC08091800080686D
:1015400080938000D0938900C093880015C080915B
:10155000B00080688093B000C093B3000DC080914C
:10156000B00080628093B000C093B40005C0C03862
:10157000D1050CF0B5CFAFCFDF91CF911F9108957A
:10158000833081F028F4813099F08230A1F0089501
:101590008730A9F08830B9F08430D1F48091800090
:1015A0008F7D03C0809180008F77809380000895A5
:1015B00084B58F7702C084B58F7D84BD08958091F6
:1015C000B0008F7703C08091B0008F7D8093B00012
:1015D0000895CF93DF9390E0FC01E458FF4F2491EE
:1015E000FC01E057FF4F8491882349F190E0880F78
:1015F000991FFC01E255FF4FA591B4918C559F4F67
:10160000FC01C591D4919FB7611108C0F8948C91E9
:10161000209582238C93888182230AC0623051F402
:10162000F8948C91322F309583238C938881822B70
:10163000888304C0F8948C91822B8C939FBFDF9198
:10164000CF9108950F931F93CF93DF931F92CDB740
:10165000DEB7282F30E0F901E859FF4F8491F901F6
:10166000E458FF4F1491F901E057FF4F0491002314
:10167000C9F0882321F069830E94C00A6981E02FA4
:10168000F0E0EE0FFF1FEC55FF4FA591B4919FB70F
:10169000F8948C91611103C01095812301C0812BB6
:1016A0008C939FBF0F90DF91CF911F910F91089561
:1016B000FC01818D228D90E0805C9F4F821B9109FF
:1016C0008F7399270895FC01918D828D981731F0C1
:1016D000828DE80FF11D858D90E008958FEF9FEFCB
:1016E0000895FC01918D828D981761F0828DDF0144
:1016F000A80FB11D5D968C91928D9F5F9F73928F05
:1017000090E008958FEF9FEF089585EF9CE0892B7F
:1017100049F080E090E0892B29F00E94F50C8111BE
:101720000C9400000895FC01848DDF01A80FB11D09
:10173000A35ABF4F2C91848D90E001968F73992707
:10174000848FA689B7892C93A089B1898C918064F4
:101750008C93938D848D981306C00288F389E02DB5
:1017600080818F7D80830895CF93DF93EC01888DF6
:101770008823C9F0EA89FB89808185FD05C0A88995
:10178000B9898C9186FD0FC00FB607FCF5CF80811B
:1017900085FFF2CFA889B9898C9185FFEDCFCE0165
:1017A0000E94930BE7CFDF91CF910895CF92DF9204
:1017B000FF920F931F93CF93DF931F92CDB7DEB7A6
:1017C0006C01DC015B969C915B975C968C915C97BD
:1017D000981307C05096ED91FC915197808185FD3B
:1017E00032C0F601038D10E00F5F1F4F0F731127FA
:1017F000F02EF601848DF81211C00FB607FCF9CF58
:10180000D6015096ED91FC915197808185FFF1CFE3
:10181000C60169830E94930B6981EBCF838DE80F2A
:10182000F11DE35AFF4F6083D6015B960C935B97E3
:101830005296ED91FC91539780818062808381E084
:1018400058968C930DC0D6015696ED91FC91579702
:1018500060835096ED91FC915197808180648083E4
:1018600081E090E00F90DF91CF911F910F91FF9059
:10187000DF90CF900895BF92CF92DF92EF92FF92C8
:10188000CF93DF93EC016A017B01B22EE889F989DD
:1018900082E08083411581EE580761057105A1F052
:1018A00060E079E08DE390E0A70196010E94410F8E
:1018B000215031094109510956954795379527958A
:1018C000211580E1380798F0E889F989108260E8ED
:1018D00074E88EE190E0A70196010E94410F21502B
:1018E0003109410951095695479537952795EC855A
:1018F000FD853083EE85FF852083188EEC89FD8978
:10190000B082EA89FB89808180618083EA89FB89D2
:10191000808188608083EA89FB89808180688083F8
:10192000EA89FB8980818F7D8083DF91CF91FF9051
:10193000EF90DF90CF90BF9008951F920F920FB657
:101940000F9211242F938F939F93EF93FF93E09126
:101950006202F09163028081E0916802F091690275
:1019600082FD12C0908180916B028F5F8F732091F6
:101970006C02821751F0E0916B02F0E0EE5AFD4FDD
:10198000958F80936B0201C08081FF91EF919F91B1
:101990008F912F910F900FBE0F901F9018951F924F
:1019A0000F920FB60F9211242F933F934F935F9393
:1019B0006F937F938F939F93AF93BF93EF93FF9317
:1019C00082E592E00E94930BFF91EF91BF91AF915E
:1019D0009F918F917F916F915F914F913F912F9147
:1019E0000F900FBE0F901F90189582E592E00E9415
:1019F000580B21E0892B09F420E0822F08951092E2
:101A000055021092540288EE93E0A0E0B0E080937B
:101A1000560290935702A0935802B09359028BE15B
:101A200091E0909353028093520285EC90E0909362
:101A30005F0280935E0284EC90E090936102809359
:101A4000600280EC90E0909363028093620281ECEC
:101A500090E0909365028093640282EC90E0909312
:101A600067028093660286EC90E09093690280930F
:101A7000680210926B0210926C0210926D0210922A
:101A80006E02089508950E94260A0E94420D0E9447
:101A90008800C5E8DBE00E94AB032097E1F30E94D9
:101AA000850BF9CFCF92DF92EF92FF920F931F93A6
:101AB000CF93DF936C017A01EB01E60EF71E00E095
:101AC00010E0CE15DF0561F06991D601ED91FC9132
:101AD0000190F081E02DC6010995080F191FF1CF83
:101AE000C801DF91CF911F910F91FF90EF90DF9090
:101AF000CF9008956115710581F0DB010D900020F4
:101B0000E9F7AD0141505109461B570BDC01ED913E
:101B1000FC910280F381E02D099480E090E008952B
:101B2000DC01ED91FC910190F081E02D09940F937F
:101B30001F93CF93DF93EC016DE00E94900D8C0119
:101B40006AE0CE010E94900D800F911FDF91CF912E
:101B50001F910F9108950F931F93CF93DF93EC0183
:101B60000E947A0D8C01CE010E94970D800F911F6B
:101B7000DF91CF911F910F9108958F929F92AF9215
:101B8000BF92CF92DF92EF92FF920F931F93CF936A
:101B9000DF93CDB7DEB7A1970FB6F894DEBF0FBEC7
:101BA000CDBF7C01C42EE52FCB01D22E19A221E09E
:101BB0002D1510F02AE0D22E8E010F5D1F4F8D2CB7
:101BC000912CA12CB12C6C2D7E2FA50194010E948B
:101BD000410F8C2DD29E80191124015011098A3099
:101BE00014F4805D01C0895CF80180832115310502
:101BF0004105510521F0C22EE32FCA01E4CFB801FF
:101C0000C7010E947A0DA1960FB6F894DEBF0FBEF1
:101C1000CDBFDF91CF911F910F91FF90EF90DF909B
:101C2000CF90BF90AF909F908F900895CF92DF920A
:101C3000EF92FF920F931F93CF93DF93EC016A0112
:101C40007B012115310579F4E881F9810190F0815A
:101C5000E02D642FDF91CF911F910F91FF90EF90B6
:101C6000DF90CF9009942A303105E9F477FF1AC04C
:101C70006DE20E94900D8C0144275527BA014C1942
:101C80005D096E097F092AE0CE010E94BD0D800F1B
:101C9000911FDF91CF911F910F91FF90EF90DF90F7
:101CA000CF9008952AE0B701A601CE01DF91CF9130
:101CB0001F910F91FF90EF90DF90CF900C94BD0D8E
:101CC0000F931F93CF93DF93EC019A01AB0166272B
:101CD00057FD6095762F0E94160E8C01CE010E9452
:101CE000970D800F911FDF91CF911F910F91089554
:101CF0000F931F93CF93DF93EC010E94CF09688766
:101D000079878A879B87E881F9810084F185E02DB6
:101D1000CE01099597FF15C00E94CF090885198546
:101D20002A853B85601B710B820B930B0C811D81F7
:101D30002E813F81601771078207930720F38FEF91
:101D40009FEFDF91CF911F910F910895CF93DF9374
:101D5000EC01CE010E94780E97FD11C08D329105E5
:101D600071F09C01205331092A30310540F0E8819F
:101D7000F9810680F781E02DCE010995EACFDF9148
:101D8000CF910895CF92DF92FF920F931F93CF933D
:101D9000DF9300D000D0CDB7DEB76C01062F0E94D4
:101DA000A60EFC0197FD4BC020E030E0A901F12C0C
:101DB000112707FD1095E017F107E9F0ED32F10565
:101DC000C1F0CF01C0970A97B0F4AAE0B0E00E943A
:101DD000630F9B01AC01CF01AA2797FDA095BA2FF5
:101DE000280F391F4A1F5B1F205331094109510930
:101DF00002C0FF24F394D601ED91FC910680F78197
:101E0000E02DC60129833A834B835C830995C60183
:101E10000E94780EFC01C09729813A814B815C8138
:101E20000A9748F2E017F10731F2FF2061F06627C8
:101E30007727CB01621B730B840B950B06C060E008
:101E400070E0CB0102C0CA01B9010F900F900F9052
:101E50000F90DF91CF911F910F91FF90DF90CF9066
:101E6000089561E00C94C20E0895991B79E004C0B6
:101E7000991F961708F0961B881F7A95C9F78095C9
:101E80000895A1E21A2EAA1BBB1BFD010DC0AA1FBB
:101E9000BB1FEE1FFF1FA217B307E407F50720F0D3
:101EA000A21BB30BE40BF50B661F771F881F991F4E
:101EB0001A9469F760957095809590959B01AC0197
:101EC000BD01CF0108950E94740FA59F900DB49F8E
:101ED000900DA49F800D911D11240895EE0FFF1FFA
:101EE0000590F491E02D0994A29FB001B39FC00129
:101EF000A39F700D811D1124911DB29F700D811D36
:0A1F00001124911D0895F894FFCFFD
:101F0A000000EF028000010000000C007F007F004B
:101F1A00FE00FF5100700000000000D60B520D5861
:081F2A000B710B630BB40B00FB
:00000001FF
