:100000000C945E000C9486000C9486000C94860080
:100010000C9486000C9486000C9486000C94E203E9
:100020000C9486000C9486000C9486000C943D057C
:100030000C9486000C9486000C9486000C94860028
:100040000C943E0A0C9486000C941A0B0C944C0BE6
:100050000C9486000C9486000C9486000C94860008
:100060000C9486000C948600000000080002010039
:100070000003040700000000000000000102040863
:100080001020408001020408102001020408102002
:10009000040404040404040402020202020203032E
:1000A0000303030300000000250028002B000000CC
:1000B0000000240027002A0071037C0B11241FBEBE
:1000C000CFEFD8E0DEBFCDBF11E0A0E0B1E0EEE8B9
:1000D000FEE102C005900D92A832B107D9F722E0E7
:1000E000A8E2B1E001C01D92A83EB207E1F710E01E
:1000F000CCEBD0E004C02297FE010E94320FC83B37
:10010000D107C9F70E947C0C0C94450F0C94000099
:10011000CF93DF93CAE0D1E061E088810E94A90912
:1001200061E088810E94700926E040E855E260E0C5
:1001300070E08BE492E00E946E0D80E00E949D04CE
:1001400069E070E08DE391E00E9493066CEB72E051
:100150008DE391E00E94990681E090E09093360152
:1001600080933501609110017091110186E00E9429
:10017000DF0960910E0170910F0185E00E94DF0997
:1001800040E060910C0184E00E94C5048BE192E0A4
:100190000E94CC0664E670E080E090E00E94B70A1E
:1001A00062E370E08BE192E00E94DD0661E08DE0A9
:1001B0000E9470090E94880A6093290170932A01A5
:1001C00080932B0190932C01DF91CF9108950F9391
:1001D0001F93809128018823E9F08A3010F0109253
:1001E00028010E94880A0091290110912A0120917A
:1001F0002B0130912C01601B710B820B930B62332E
:1002000071058105910558F18091280180FF27C073
:1002100060E03DC00E94880A0091290110912A01E6
:1002200020912B0130912C01601B710B820B930BE1
:10023000603D774081059105E0F181E080932801E0
:1002400061E08DE00E94A9090E94880A609329015B
:1002500070932A0180932B0190932C012AC00E9455
:10026000880A0091290110912A0120912B013091D7
:100270002C01601B710B820B930B6233710581059E
:100280009105B8F08091280180FD13C061E08DE0F8
:100290000E94A9090E94880A6093290170932A018B
:1002A00080932B0190932C01809128018F5F809384
:1002B00028011F910F9108950F931F93CF93DF9300
:1002C00000D0CDB7DEB724E030E040E050E062E699
:1002D00070E08BE192E00E94BE08182F61E070E0B0
:1002E00080E090E00E94B70A0E94880A6536710596
:1002F00081059105E8F41111E6CF8E010F5F1F4FC4
:1003000022E04FE862E68BE192E00E94C008182FDD
:1003100061E070E080E090E00E94B70A1111EDCF3B
:10032000898190E0982F88272A81820F911D02C031
:100330008FEF9FEF0F900F90DF91CF911F910F9153
:10034000089520913301309134012115310581F058
:100350008091100190911101820F931F9C012150F7
:1003600031092E3F310520F4909311018093100143
:1003700020913101309132012115310581F08091B8
:100380000E0190910F01820F931F9C0121503109A2
:100390002E3F310520F490930F0180930E012091A0
:1003A0002F01309130012115310581F080910C0130
:1003B00090910D01820F931F9C01215031092E3F16
:1003C000310520F490930D0180930C016091100190
:1003D0007091110186E00E94DF0960910E01709119
:1003E0000F0185E00E94DF0940E060910C0184E08C
:1003F0000C94C50480913501909136018F309105A0
:1004000009F48BC064F48530910509F442C08A3048
:10041000910509F461C0019709F04BC10CC0893105
:10042000910509F4C8C08E31910509F4F2C04497D2
:1004300009F03FC193C080913B0190913C018F3006
:10044000910509F4C8C04CF48530910509F4B0C099
:100450008A30910509F47FC02CC18931910509F4D6
:1004600059C08E31910591F0449709F022C184EA78
:1004700096E090933A018093390180ED97E0909354
:1004800038018093370184E190E00FC124EA36E01F
:10049000B9C080913B0190913C018F30910509F4E6
:1004A0005AC04CF48130910509F4E7C08A309105B7
:1004B00009F47EC0FEC08931910541F08E3191056D
:1004C00041F08431910509F0F4C085C024EA36E09A
:1004D000CDC024EA36E0B8C080913B0190913C0148
:1004E0008F30910509F464C04CF48130910509F412
:1004F000C4C08530910509F4CCC0DBC089319105B9
:1005000009F469C08E31910529F08431910509F013
:10051000D0C021C024EA36E0A0C080913B01909178
:100520003C018A30910509F4B4C04CF48130910546
:1005300009F491C08530910509F4A2C0BAC089318F
:10054000910549F08E31910509F445C0843191053A
:1005500009F0AFC02DC024EA36E094C080913B0181
:1005600090913C018A30910509F48AC04CF48130A5
:10057000910509F470C08530910509F47EC099C0D9
:1005800089319105A9F08E31910529F10F9709F074
:1005900090C08CEB92E090933A018093390184EF04
:1005A00091E090933801809337018FE090E07DC017
:1005B00024EA36E070C080913B0190913C018A3082
:1005C000910509F45AC084F08431910509F461C0A1
:1005D0008E31910581F424EA36E030933A0120937C
:1005E00039012CED35E05DC08130910549F0853051
:1005F0009105D1F15EC08F30910509F05AC040C01D
:100600002CEB32E030933A012093390128EB3BE0A8
:1006100048C080913B0190913C018A30910521F1C5
:100620003CF48130910571F085309105A1F041C015
:100630008431910529F18931910559F18F30910566
:10064000C1F51BC02CEB32E030933A012093390105
:100650002CEA3DE026C02CEB32E030933A012093A7
:10066000390124EC39E01DC02CEB32E030933A0123
:100670002093390120ED37E014C02CEB32E0ADCFF0
:100680002CEB32E030933A012093390128EE33E02D
:1006900008C02CEB32E030933A012093390124EF6B
:1006A00031E03093380120933701909336018093E5
:1006B00035016091390170913A018DE391E00E941A
:1006C00099066091370170913801882777FD8095F0
:1006D000982F0E94B70A6CED75E08DE391E00C94C1
:1006E00099068DE391E00C94F9050E94E7008BE4F4
:1006F00092E00E948B0C181619060CF061C08BE476
:1007000092E00E94A40C282F332727FD30953093C8
:100710002E0120932D01803709F448C08CF48736D0
:10072000F1F08C3609F048C00E945C014AE050E0CC
:10073000BC018BE492E00E94DE0E63E171E038C000
:10074000823741F18A37C1F58BE492E00E94780C40
:1007500070933C0160933B010E94FA012DC08BE431
:1007600092E00E94780C70933401609333018BE423
:1007700092E00E94780C70933201609331018BE417
:1007800092E00E94780C7093300160932F010E94D8
:10079000A10112C068EE73E080E090E00E94B70A09
:1007A00060E080910A010E94A90906C065E171E03C
:1007B0008BE492E00E94290E10922E0110922D01DE
:1007C0000C94E7001F920F920FB60F921124CF9254
:1007D000DF92FF920F931F932F933F934F935F935B
:1007E0006F937F938F939F93AF93BF93CF93DF9339
:1007F000EF93FF93809112018F5F80931201882302
:1008000039F086E491E0E4E4F1E0A1E4B1E05BC01A
:10081000E6E4F1E044E451E021E431E085E4C82E6F
:1008200081E0D82EA8E4B1E0CD010197EC01F88079
:10083000E601F11003C08C918823F1F0888190E0EB
:10084000608170E08C01061B170B1016110644F432
:10085000FF2099F06F0D711D6817790774F40AC0B5
:10086000012B59F01C91112341F0611B710986176E
:1008700097071CF4CB0101C0888180838081882385
:1008800099F0E901688189819A81EC01611105C0C3
:100890006881EA017881672B05C07881EA01688167
:1008A00060956723EC0168833996475F5F4F275F48
:1008B0003F4FD9E0CD0ED11C199681E0EA3FF807F1
:1008C00009F0B2CF9ECFED012197288127FD16C0F8
:1008D00020911201EC013881321310C02C91119635
:1008E000CD91DC911297211105C03881208120958E
:1008F000232303C028813081232B2883099639962E
:100900001996D1E0E83FFD07F1F6FF91EF91DF91F5
:10091000CF91BF91AF919F918F917F916F915F9197
:100920004F913F912F911F910F91FF90DF90CF90AA
:100930000F900FBE0F901F901895CF93DF9391E00B
:1009400097BB92E09093B1009093B00022E820937F
:10095000B30090937000E1E4F1E0A8E4B1E09FEF10
:10096000EF0121979883108212821182ED01219765
:1009700018821C923996199621E0E53FF20781F71B
:100980008093F401DF91CF9108951F93CF93DF936C
:10099000182F442329F01092B2008FEF8093120198
:1009A000E0E4F1E0A5E4B1E090E08FEF208117FFF3
:1009B00005C027FF05C08F3F51F406C02113FBCFB0
:1009C0006C9317FDF8CF55C0208127FD892F9F5FBD
:1009D00039961996943151F717FD4BC08F3F09F4A2
:1009E00048C0282F332727FD309599E08902F00170
:1009F0001124E05CFE4F10838091F4018183412F2C
:100A0000552747FD5095FA01E057FF4FE491F0E07C
:100A1000EE0FFF1FEC55FF4FC591D49199E0929FC7
:100A2000D001939FB00D1124A05CBE4F1396DC93B0
:100A3000CE931297FA01E458FF4F4491929FD00150
:100A4000939FB00D1124A05CBE4F14964C93149745
:100A500015966C93811102C060E001C061E0812FA6
:100A60000E94A90961E0812FDF91CF911F910C9421
:100A70007009DF91CF911F9108951F920F920FB6C9
:100A80000F9211242F933F934F935F936F937F9314
:100A90008F939F93AF93BF93EF93FF938091F60152
:100AA00087FF05C010928500109284001AC0209123
:100AB000F601332727FD30958091F50190E0281746
:100AC00039077CF48091F601992787FD9095FC0108
:100AD000EE0FFF1FE80FF91FE950FE4F808186FDE2
:100AE00015C08091F6018F5F8093F6012091F60189
:100AF000332727FD30958091F50190E028173907BD
:100B0000BCF48091F6018C305CF112C08091F6014A
:100B1000992787FD9095FC01EE0FFF1FE80FF91F45
:100B2000E950FE4F808160E08F730E94A909D9CF00
:100B30008091840090918500049680349C4918F43B
:100B400080E49CE905C08091840090918500049622
:100B500090938900809388008FEF8093F60138C0CE
:100B600020918400309185008091F601992787FDBE
:100B70009095FC01EE0FFF1FE80FF91FE950FE4FA3
:100B800081819281820F931F9093890080938800C6
:100B90008091F601992787FD9095FC01EE0FFF1FCC
:100BA000E80FF91FE950FE4F808186FF11C0809148
:100BB000F601992787FD9095FC01EE0FFF1FE80FC6
:100BC000F91FE950FE4F808161E08F730E94A909EF
:100BD000FF91EF91BF91AF919F918F917F916F9115
:100BE0005F914F913F912F910F900FBE0F901F90EB
:100BF00018952091F5012C30A0F431E0320F30939C
:100C0000F501FC012083822F90E0FC01EE0FFF1F15
:100C1000E80FF91FE950FE4F88EB9BE09283818338
:100C200008952FEFFC0120830895DF92EF92FF9249
:100C30000F931F93CF93DF93EC01D62E7A01890196
:100C400088818C3008F066C061E08D2D0E947009AB
:100C50008881A82FB0E0FD01EE0FFF1FEA0FFB1FF8
:100C6000E950FE4F2D2D2F739081907C922B908315
:100C700060E272E06E197F0977FF02C06D5F7F4FFF
:100C80007595679575956795698340E659E0401BB2
:100C9000510B57FF02C04D5F5F4F559547955595D6
:100CA00047954A836CE00E94F70E9CE0899FB00153
:100CB000112420E030E0A901460F571FFA01EE0F82
:100CC000FF1FE40FF51FE950FE4F908196FD16C0FF
:100CD0002F5F3F4F2C30310571F781110FC01092FB
:100CE000800082E080938100109285001092840041
:100CF000B19A80916F00826080936F00888190E04C
:100D0000FC01EE0FFF1FE80FF91FE950FE4F808135
:100D1000806480838881DF91CF911F910F91FF9034
:100D2000EF90DF90089520E639E040E252E00C9425
:100D30001506FC0180818C3070F5918128E830E047
:100D4000291B310997FD3395220F331F220F331FC3
:100D5000621773077CF0928128E532E0291B310984
:100D600097FD3395220F331F220F331F621773072E
:100D70000CF49B0122503109220F331F4FB7F89416
:100D800090E0FC01EE0FFF1FE80FF91FE950FE4F46
:100D9000328321834FBF0895449A459AE9EBF0E0EE
:100DA00080818E7F808380818D7F808388E48093A3
:100DB000B80084E48093BC00089570933E02609371
:100DC0003D020895CF92DF92EF92FF920F931F930F
:100DD0000E94880A6B017C0184EA8093BC008091A8
:100DE0003D0290913E022091BC0027FD1BC0009760
:100DF000D1F30E94880A6C197D098E099F094091E0
:100E00003D0250913E028A0120E030E060177107F8
:100E10008207930720F31092BC0084E48093BC0007
:100E200081E01CC08091B900887F883029F08091D2
:100E3000B900887F803111F480E010C08091B90042
:100E4000887F883341F48091B9001092BC0094E40B
:100E50009093BC0002C08091B900887F1F910F91D0
:100E6000FF90EF90DF90CF900895CF92DF92EF92B6
:100E7000FF920F931F93CF93C62F0E94880A6B0196
:100E80007C01CC2311F084EC01C084E88093BC0089
:100E900080913D0290913E022091BC0027FD1BC035
:100EA0000097D1F30E94880A6C197D098E099F0969
:100EB00040913D0250913E028A0120E030E06017EF
:100EC00071078207930720F31092BC0084E480939B
:100ED000BC0081E010C08091B900887F883341F464
:100EE0008091B9001092BC0094E49093BC0002C0C1
:100EF0008091B900887FCF911F910F91FF90EF9063
:100F0000DF90CF900895CF92DF92EF92FF920F93F0
:100F10001F930E94880A6B017C0184E98093BC00C6
:100F200080913D0290913E022091BC0024FF1BC0A5
:100F30000097D1F30E94880A6C197D098E099F09D8
:100F400040913D0250913E028A0120E030E060175E
:100F500071078207930720F31092BC0084E480930A
:100F6000BC0081E001C080E01F910F91FF90EF90E5
:100F7000DF90CF900895CF92DF92EF92FF920F9380
:100F80001F93CF93DF93EC016093BB000E94880A0C
:100F90006B017C0184E88093BC0080913D029091BC
:100FA0003E022091BC0027FD1BC00097D1F30E9498
:100FB000880A6C197D098E099F0920913D023091A4
:100FC0003E02890120E030E0601771078207930735
:100FD00020F31092BC0084E48093BC0081E024C024
:100FE0008091B900887F883129F08091B900887F8D
:100FF000803411F480E018C01091B900187F8091FE
:10100000B900887F803229F08091B900887F8834C8
:1010100029F4CE010E948307812F06C01092BC00E4
:1010200084E48093BC00F8CFDF91CF911F910F91A2
:10103000FF90EF90DF90CF900895CF92DF92EF92E4
:10104000FF920F931F93CF93DF93EC016093BB004C
:101050000E94880A6B017C0184E88093BC00809127
:101060003D0290913E022091BC0027FD1BC00097DD
:10107000D1F30E94880A6C197D098E099F0920917D
:101080003D0230913E02890120E030E06017710797
:101090008207930720F31092BC0084E48093BC0085
:1010A00081E019C08091B900887F883299F0109151
:1010B000B900187F8091B900887F803321F4CE0178
:1010C0000E94830705C01092BC0084E48093BC009A
:1010D000812F01C080E0DF91CF911F910F91FF9090
:1010E000EF90DF90CF900895EF92FF920F931F93B0
:1010F000CF93DF931F92CDB7DEB77C01042F122F61
:10110000FC01108269830E94E206F70180836981F5
:1011100081112CC0660FC7010E94BB07F7018083B5
:10112000882321F0813011F582E020C0602FC701B3
:101130000E941D08F7018083882321F08130B1F4DB
:1011400083E014C0612FC7010E941D08F70180834E
:101150008111F4CFC7010E948307F70180838823A0
:1011600021F0813019F487E001C080E00F90DF9119
:10117000CF911F910F91FF90EF9008950C947408F8
:10118000DF92EF92FF920F931F93CF93DF93EC01C7
:10119000F62EE42ED22E109241021092400221111E
:1011A00002C0DD24D3948FEF8D0D89831882CE0188
:1011B0000E94E2068883811162C0FF0C6F2DCE0170
:1011C0000E94BB078883882329F0813009F057C02B
:1011D00082E055C06E2DCE010E941D0888838823B1
:1011E00029F0813009F04BC083E049C0CE010E9454
:1011F000E2068883882329F0813009F040C084E02A
:101200003EC061E06F0DCE010E94BB078883811153
:1012100003C0780110E019C0813089F585E02FC046
:1012200060E0CE010E94350788838130C1F08835A7
:1012300031F58091BB00F70181937F011F5F10930F
:10124000410210933F021D1579F08981181741F36F
:1012500061E0CE010E9435078883813011F486E079
:101260000EC0803531F30BC0CE010E948307888306
:10127000882321F0813019F487E001C080E0DF91FC
:10128000CF911F910F91FF90EF90DF9008958330E1
:1012900081F028F4813099F08230A1F008958730F0
:1012A000A9F08830B9F08430D1F4809180008F7D2E
:1012B00003C0809180008F7780938000089584B56B
:1012C0008F7702C084B58F7D84BD08958091B00072
:1012D0008F7703C08091B0008F7D8093B000089518
:1012E000CF93DF9390E0FC01E458FF4F2491FC0181
:1012F000E057FF4F8491882349F190E0880F991FB0
:10130000FC01E255FF4FA591B4918C559F4FFC0114
:10131000C591D4919FB7611108C0F8948C91209524
:1013200082238C93888182230AC0623051F4F8941E
:101330008C91322F309583238C938881822B8883E4
:1013400004C0F8948C91822B8C939FBFDF91CF9136
:1013500008950F931F93CF93DF931F92CDB7DEB7FE
:10136000282F30E0F901E859FF4F8491F901E45842
:10137000FF4F1491F901E057FF4F04910023C9F08A
:10138000882321F069830E9447096981E02FF0E0FA
:10139000EE0FFF1FEC55FF4FA591B4919FB7F89446
:1013A0008C91611103C01095812301C0812B8C9316
:1013B0009FBF0F90DF91CF911F910F9108951F93C1
:1013C000CF93DF93182FEB0161E00E947009209703
:1013D00011F460E004C0CF3FD10539F461E0812F02
:1013E000DF91CF911F910C94A909E12FF0E0E8590A
:1013F000FF4FE491E330F9F048F4E130B9F0E23026
:10140000A1F584B5806284BDC8BD34C0E730E9F081
:10141000E83019F1E43049F58091800080628093D2
:101420008000D0938B00C0938A0024C084B580686C
:1014300084BDC7BD1FC080918000806880938000FC
:10144000D0938900C093880015C08091B000806857
:101450008093B000C093B3000DC08091B000806253
:101460008093B000C093B40005C0C038D1050CF023
:10147000B5CFAFCFDF91CF911F9108951F920F92FB
:101480000FB60F9211242F933F938F939F93AF9397
:10149000BF938091430290914402A0914502B09184
:1014A00046023091420223E0230F2D3720F40196AB
:1014B000A11DB11D05C026E8230F0296A11DB11D77
:1014C000209342028093430290934402A0934502EA
:1014D000B09346028091470290914802A091490240
:1014E000B0914A020196A11DB11D809347029093CD
:1014F0004802A0934902B0934A02BF91AF919F91D5
:101500008F913F912F910F900FBE0F901F901895C4
:101510002FB7F89460914302709144028091450284
:10152000909146022FBF08953FB7F89480914702EB
:1015300090914802A0914902B0914A0226B5A89B19
:1015400005C02F3F19F00196A11DB11D3FBF6627B1
:10155000782F892F9A2F620F711D811D911D42E0F6
:10156000660F771F881F991F4A95D1F70895CF926C
:10157000DF92EF92FF92CF93DF936B017C010E9489
:10158000940AEB01C114D104E104F10489F00E9432
:10159000F60E0E94940A6C1B7D0B683E734090F31C
:1015A00081E0C81AD108E108F108C851DC4FEACF40
:1015B000DF91CF91FF90EF90DF90CF9008957894D6
:1015C00084B5826084BD84B5816084BD85B5826048
:1015D00085BD85B5816085BDEEE6F0E080818160E6
:1015E0008083E1E8F0E010828081826080838081E6
:1015F00081608083E0E8F0E0808181608083E1EBBE
:10160000F0E0808184608083E0EBF0E080818160A5
:101610008083EAE7F0E0808184608083808182605B
:101620008083808181608083808180688083109244
:10163000C10008951F920F920FB60F9211242F939D
:101640008F939F93EF93FF93E0915B02F0915C0285
:101650008081E0916102F091620282FD12C090816E
:10166000809164028F5F8F7320916502821751F021
:10167000E0916402F0E0E55BFD4F958F809364029A
:1016800001C08081FF91EF919F918F912F910F90D9
:101690000FBE0F901F9018951F920F920FB60F92CA
:1016A00011242F933F934F935F936F937F938F9367
:1016B0009F93AF93BF93EF93FF938BE492E00E94CD
:1016C000C60CFF91EF91BF91AF919F918F917F9148
:1016D0006F915F914F913F912F910F900FBE0F909F
:1016E0001F9018958BE492E00E948B0C21E0892BCF
:1016F00009F420E0822F089510924E0210924D02BC
:1017000088EE93E0A0E0B0E080934F029093500207
:10171000A0935102B09352028BE191E090934C025E
:1017200080934B0285EC90E090935802809357028F
:1017300084EC90E090935A028093590280EC90E000
:1017400090935C0280935B0281EC90E090935E0248
:1017500080935D0282EC90E09093600280935F0240
:1017600086EC90E090936202809361021092640292
:1017700010926502109266021092670208950F930C
:101780001F93CF93DF93EC010E94880A68877987C3
:101790008A879B87E881F9810084F185E02DCE015D
:1017A000099597FF15C00E94880A088519852A8522
:1017B0003B85601B710B820B930B0C811D812E816D
:1017C0003F81601771078207930720F38FEF9FEF28
:1017D000DF91CF911F910F910895CF93DF93EC018B
:1017E000CE010E94BF0B97FD11C08D32910571F0A3
:1017F0009C01205331092A30310540F0E881F981FC
:101800000680F781E02DCE010995EACFDF91CF91D7
:101810000895CF92DF92FF920F931F93CF93DF93A0
:1018200000D000D0CDB7DEB76C01062F0E94ED0BC3
:10183000FC0197FD4BC020E030E0A901F12C1127FD
:1018400007FD1095E017F107E9F0ED32F105C1F061
:10185000CF01C0970A97B0F4AAE0B0E00E94250F2C
:101860009B01AC01CF01AA2797FDA095BA2F280FA5
:10187000391F4A1F5B1F205331094109510902C01A
:10188000FF24F394D601ED91FC910680F781E02DC1
:10189000C60129833A834B835C830995C6010E9464
:1018A000BF0BFC01C09729813A814B815C810A976B
:1018B00048F2E017F10731F2FF2061F06627772741
:1018C000CB01621B730B840B950B06C060E070E0CC
:1018D000CB0102C0CA01B9010F900F900F900F9079
:1018E000DF91CF911F910F91FF90DF90CF900895DE
:1018F00061E00C94090C08950E94DF0A0E947B0CA1
:101900000E948800C8EBDCE00E9475032097E1F399
:101910000E94B80CF9CFFC01818D228D90E0805C93
:101920009F4F821B91098F7399270895FC01918D18
:10193000828D981731F0828DE80FF11D858D90E032
:1019400008958FEF9FEF0895FC01918D828D981778
:1019500061F0828DDF01A80FB11D5D968C91928D93
:101960009F5F9F73928F90E008958FEF9FEF089590
:1019700082E79BE0892B49F080E090E0892B29F0F9
:101980000E94720B81110C9400000895FC01848D5B
:10199000DF01A80FB11DA35ABF4F2C91848D90E099
:1019A00001968F739927848FA689B7892C93A08974
:1019B000B1898C9180648C93938D848D981306C02B
:1019C0000288F389E02D80818F7D80830895CF93F5
:1019D000DF93EC01888D8823C9F0EA89FB89808137
:1019E00085FD05C0A889B9898C9186FD0FC00FB609
:1019F00007FCF5CF808185FFF2CFA889B9898C914A
:101A000085FFEDCFCE010E94C60CE7CFDF91CF91CD
:101A10000895CF92DF92FF920F931F93CF93DF939E
:101A20001F92CDB7DEB76C01DC015B969C915B9792
:101A30005C968C915C97981307C05096ED91FC9141
:101A40005197808185FD32C0F601038D10E00F5F54
:101A50001F4F0F731127F02EF601848DF81211C05D
:101A60000FB607FCF9CFD6015096ED91FC91519736
:101A7000808185FFF1CFC60169830E94C60C698110
:101A8000EBCF838DE80FF11DE35AFF4F6083D60142
:101A90005B960C935B975296ED91FC9153978081E6
:101AA0008062808381E058968C930DC0D601569653
:101AB000ED91FC91579760835096ED91FC91519771
:101AC00080818064808381E090E00F90DF91CF91EE
:101AD0001F910F91FF90DF90CF900895BF92CF920A
:101AE000DF92EF92FF92CF93DF93EC016A017B01CB
:101AF000B22EE889F98982E08083411581EE58078A
:101B000061057105A1F060E079E08DE390E0A70147
:101B100096010E94030F2150310941095109569540
:101B2000479537952795211580E1380798F0E88982
:101B3000F989108260E874E88EE190E0A7019601CF
:101B40000E94030F215031094109510956954795CB
:101B500037952795EC85FD853083EE85FF852083BD
:101B6000188EEC89FD89B082EA89FB8980818061C9
:101B70008083EA89FB89808188608083EA89FB8988
:101B8000808180688083EA89FB8980818F7D808362
:101B9000DF91CF91FF90EF90DF90CF90BF900895AD
:101BA000CF92DF92EF92FF920F931F93CF93DF9329
:101BB0006C017A01EB01E60EF71E00E010E0CE1595
:101BC000DF0561F06991D601ED91FC910190F08102
:101BD000E02DC6010995080F191FF1CFC801DF914B
:101BE000CF911F910F91FF90EF90DF90CF900895CC
:101BF0006115710581F0DB010D900020E9F7AD0161
:101C000041505109461B570BDC01ED91FC910280BC
:101C1000F381E02D099480E090E00895DC01ED91DE
:101C2000FC910190F081E02D09940F931F93CF93C5
:101C3000DF93EC016DE00E940E0E8C016AE0CE0194
:101C40000E940E0E800F911FDF91CF911F910F9177
:101C500008950F931F93CF93DF93EC010E94F80D2B
:101C60008C01CE010E94150E800F911FDF91CF9144
:101C70001F910F9108958F929F92AF92BF92CF9232
:101C8000DF92EF92FF920F931F93CF93DF93CDB725
:101C9000DEB7A1970FB6F894DEBF0FBECDBF7C01B3
:101CA000C42EE52FCB01D22E19A221E02D1510F064
:101CB0002AE0D22E8E010F5D1F4F8D2C912CA12C6E
:101CC000B12C6C2D7E2FA50194010E94030F8C2D49
:101CD000D29E80191124015011098A3014F4805DBC
:101CE00001C0895CF801808321153105410551054A
:101CF00021F0C22EE32FCA01E4CFB801C7010E9430
:101D0000F80DA1960FB6F894DEBF0FBECDBFDF91E0
:101D1000CF911F910F91FF90EF90DF90CF90BF90E8
:101D2000AF909F908F900895CF92DF92EF92FF92A5
:101D30000F931F93CF93DF93EC016A017B01211571
:101D4000310579F4E881F9810190F081E02D642F6B
:101D5000DF91CF911F910F91FF90EF90DF90CF9087
:101D600009942A303105E9F477FF1AC06DE20E9428
:101D70000E0E8C0144275527BA014C195D096E09D6
:101D80007F092AE0CE010E943B0E800F911FDF9158
:101D9000CF911F910F91FF90EF90DF90CF9008951A
:101DA0002AE0B701A601CE01DF91CF911F910F91DB
:101DB000FF90EF90DF90CF900C943B0E0F931F930A
:101DC000CF93DF93EC019A01AB01662757FD609535
:101DD000762F0E94940E8C01CE010E94150E800F6A
:101DE000911FDF91CF911F910F9108950895991B35
:101DF00079E004C0991F961708F0961B881F7A9502
:101E0000C9F780950895A1E21A2EAA1BBB1BFD01FC
:101E10000DC0AA1FBB1FEE1FFF1FA217B307E407C9
:101E2000F50720F0A21BB30BE40BF50B661F771F21
:101E3000881F991F1A9469F7609570958095909501
:101E40009B01AC01BD01CF0108950E94360FA59FF3
:101E5000900DB49F900DA49F800D911D11240895A5
:101E6000EE0FFF1F0590F491E02D0994A29FB001A1
:101E7000B39FC001A39F700D811D1124911DB29FBE
:0E1E8000700D811D1124911D0895F894FFCF5F
:101E8E000000E8028000010000000C007F007F00CF
:101E9E00FE00FF5100700000000000090DD00D8BF8
:081EAE000CA40C960CE70C00DB
:00000001FF
