:100000000C945E000C9486000C9486000C94860080
:100010000C9486000C9486000C9486000C948B0340
:100020000C9486000C9486000C9486000C94E604D4
:100030000C9486000C9486000C9486000C94860028
:100040000C94F0080C9486000C94080C0C943A0C58
:100050000C9486000C9486000C9486000C94860008
:100060000C9486000C948600000000080002010039
:100070000003040700000000000000000102040863
:100080001020408001020408102001020408102002
:10009000040404040404040402020202020203032E
:1000A0000303030300000000250028002B000000CC
:1000B0000000240027002A0023036A0C11241FBE1D
:1000C000CFEFD8E0DEBFCDBF11E0A0E0B1E0E0EEC1
:1000D000FDE102C005900D92A632B107D9F722E0EA
:1000E000A6E2B1E001C01D92A83EB207E1F710E020
:1000F000CCEBD0E004C02297FE010E94DB0EC83B8F
:10010000D107C9F70E94AE0C0C94EE0E0C940000BF
:10011000CF93DF93CAE0D1E061E088810E948D0A2D
:1001200061E088810E94540A26E040E855E260E0E0
:1001300070E08BE492E00E94A60B80E00E944604EF
:1001400069E070E08DE391E00E943C066CEB72E0A8
:100150008DE391E00E94420681E090E090933601A9
:1001600080933501609110017091110186E00E9429
:10017000CC0960910E0170910F0185E00E94CC09BD
:1001800040E060910C0184E00E946E048BE192E0FB
:100190000E94750664E670E080E090E00E946909C4
:1001A00062E370E08BE192E0DF91CF910C948606E0
:1001B000FF920F931F93CF93DF9310922E01109213
:1001C0002F011092300110923101C5E0D0E094E689
:1001D000F92EF092320180913201882399F024E0C7
:1001E00030E040E050E062E670E08BE192E00E9497
:1001F00067088093320161E070E080E090E00E9447
:100200006909E9CFF092320180913201882391F09F
:1002100003E311E022E04FE862E68BE192E00E9406
:1002200069088093320161E070E080E090E00E9414
:100230006909EACF6091330170E0762F66278091DB
:100240003401680F711D882777FD8095982F0091E4
:100250002E0110912F012091300130913101600F5A
:10026000711F821F931F60932E0170932F01809343
:10027000300190933101219709F0ABCF25E030E0B8
:1002800040E050E00E94AC0E20932E0130932F01ED
:100290004093300150933101C901DF91CF911F91FB
:1002A0000F91FF90089520912C0130912D0121157F
:1002B000310581F08091100190911101820F931FFF
:1002C0009C01215031092E3F310520F490931101FA
:1002D0008093100120912A0130912B0121153105C5
:1002E00081F080910E0190910F01820F931F9C016C
:1002F000215031092E3F310520F490930F01809356
:100300000E0120912801309129012115310581F03C
:1003100080910C0190910D01820F931F9C0121503F
:1003200031092E3F310520F490930D0180930C018B
:10033000609110017091110186E00E94CC096091DA
:100340000E0170910F0185E00E94CC0940E06091A0
:100350000C0184E00C946E0480913501909136017B
:100360008F30910509F48BC064F48530910509F450
:1003700042C08A30910509F461C0019709F04BC170
:100380000CC08931910509F4C8C08E31910509F47A
:10039000F2C0449709F03FC193C080913B01909116
:1003A0003C018F30910509F4C8C04CF485309105AB
:1003B00009F4B0C08A30910509F47FC02CC189319D
:1003C000910509F459C08E31910591F0449709F0D7
:1003D00022C184EA96E090933A018093390180ED3E
:1003E00097E0909338018093370184E190E00FC14A
:1003F00024EA36E0B9C080913B0190913C018F30F6
:10040000910509F45AC04CF48130910509F4E7C014
:100410008A30910509F47EC0FEC08931910541F012
:100420008E31910541F08431910509F0F4C085C009
:1004300024EA36E0CDC024EA36E0B8C080913B0122
:1004400090913C018F30910509F464C04CF48130E7
:10045000910509F4C4C08530910509F4CCC0DBC016
:100460008931910509F469C08E31910529F08431F3
:10047000910509F0D0C021C024EA36E0A0C08091E7
:100480003B0190913C018A30910509F4B4C04CF4D1
:100490008130910509F491C08530910509F4A2C01D
:1004A000BAC08931910549F08E31910509F445C0F2
:1004B0008431910509F0AFC02DC024EA36E094C024
:1004C00080913B0190913C018A30910509F48AC0EA
:1004D0004CF48130910509F470C08530910509F420
:1004E0007EC099C089319105A9F08E31910529F11D
:1004F0000F9709F090C08CEB92E090933A018093B3
:10050000390184EF91E090933801809337018FE0B7
:1005100090E07DC024EA36E070C080913B0190916C
:100520003C018A30910509F45AC084F08431910568
:1005300009F461C08E31910581F424EA36E03093EC
:100540003A01209339012CED35E05DC081309105F1
:1005500049F085309105D1F15EC08F30910509F0E9
:100560005AC040C02CEB32E030933A01209339015D
:1005700028EB3BE048C080913B0190913C018A30E0
:10058000910521F13CF48130910571F085309105A0
:10059000A1F041C08431910529F18931910559F1CA
:1005A0008F309105C1F51BC02CEB32E030933A013E
:1005B000209339012CEA3DE026C02CEB32E0309349
:1005C0003A012093390124EC39E01DC02CEB32E0D4
:1005D00030933A012093390120ED37E014C02CEB21
:1005E00032E0ADCF2CEB32E030933A012093390169
:1005F00028EE33E008C02CEB32E030933A01209330
:10060000390124EF31E03093380120933701909382
:100610003601809335016091390170913A018DE383
:1006200091E00E944206609137017091380188275D
:1006300077FD8095982F0E9469096CED75E08DE338
:1006400091E00C9442068DE391E00C94A2058BE4BA
:1006500092E00E94C30A181619060CF05BC08BE4E6
:1006600092E00E94DC0A282F332727FD3095309333
:100670002701209326018C3671F1F4F4873609F0B6
:1006800045C08BE492E00E949C0E70932D01609314
:100690002C018BE492E00E949C0E70932B016093DE
:1006A0002A018BE492E00E949C0E709329016093D2
:1006B00028010E9453012AC08237E9F08A3731F5B8
:1006C0008BE492E00E949C0E70933C0160933B018E
:1006D0000E94AC011BC00E94D8004AE050E0BC015F
:1006E0008BE492E00E94CB0D63E171E08BE492E039
:1006F0000E94160D0BC068EE73E080E090E00E944F
:10070000690960E080910A010E948D0A1092270118
:100710001092260108951F920F920FB60F92112486
:10072000CF92DF92FF920F931F932F933F934F939C
:100730005F936F937F938F939F93AF93BF93CF9369
:10074000DF93EF93FF93809112018F5F80931201EB
:10075000882339F086E491E0E4E4F1E0A1E4B1E03B
:100760005BC0E6E4F1E044E451E021E431E085E4FB
:10077000C82E81E0D82EA8E4B1E0CD010197EC01AC
:10078000F880E601F11003C08C918823F1F0888194
:1007900090E0608170E08C01061B170B10161106AB
:1007A00044F4FF2099F06F0D711D6817790774F4F8
:1007B0000AC0012B59F01C91112341F0611B7109F2
:1007C000861797071CF4CB0101C088818083808144
:1007D000882399F0E901688189819A81EC0161118E
:1007E00005C06881EA017881672B05C07881EA013C
:1007F000688160956723EC0168833996475F5F4F96
:10080000275F3F4FD9E0CD0ED11C199681E0EA3F1A
:10081000F80709F0B2CF9ECFED012197288127FD7F
:1008200016C020911201EC013881321310C02C91B6
:100830001196CD91DC911297211105C0388120814C
:100840002095232303C028813081232B28830996F8
:1008500039961996D1E0E83FFD07F1F6FF91EF9147
:10086000DF91CF91BF91AF919F918F917F916F91C8
:100870005F914F913F912F911F910F91FF90DF90CA
:10088000CF900F900FBE0F901F901895CF93DF93CE
:1008900091E097BB92E09093B1009093B00022E872
:1008A0002093B30090937000E1E4F1E0A8E4B1E09C
:1008B0009FEFEF0121979883108212821182ED0140
:1008C000219718821C923996199621E0E53FF2078C
:1008D00081F78093F401DF91CF9108951F93CF9317
:1008E000DF93182F442329F01092B2008FEF8093EA
:1008F0001201E0E4F1E0A5E4B1E090E08FEF2081A7
:1009000017FF05C027FF05C08F3F51F406C0211314
:10091000FBCF6C9317FDF8CF55C0208127FD892FA1
:100920009F5F39961996943151F717FD4BC08F3F51
:1009300009F448C0282F332727FD309599E0890214
:10094000F0011124E05CFE4F10838091F40181835B
:10095000412F552747FD5095FA01E057FF4FE4918D
:10096000F0E0EE0FFF1FEC55FF4FC591D49199E0D9
:10097000929FD001939FB00D1124A05CBE4F13969F
:10098000DC93CE931297FA01E458FF4F4491929F63
:10099000D001939FB00D1124A05CBE4F14964C93D0
:1009A000149715966C93811102C060E001C061E05C
:1009B000812F0E948D0A61E0812FDF91CF911F91DD
:1009C0000C94540ADF91CF911F9108951F920F92BA
:1009D0000FB60F9211242F933F934F935F936F9312
:1009E0007F938F939F93AF93BF93EF93FF938091E8
:1009F000F60187FF05C010928500109284001AC08E
:100A00002091F601332727FD30958091F50190E084
:100A1000281739077CF48091F601992787FD909576
:100A2000FC01EE0FFF1FE80FF91FE950FE4F808118
:100A300086FD15C08091F6018F5F8093F6012091AD
:100A4000F601332727FD30958091F50190E02817B6
:100A50003907BCF48091F6018C305CF112C08091B2
:100A6000F601992787FD9095FC01EE0FFF1FE80F17
:100A7000F91FE950FE4F808160E08F730E948D0A5C
:100A8000D9CF8091840090918500049680349C4950
:100A900018F480E49CE905C0809184009091850061
:100AA000049690938900809388008FEF8093F601DD
:100AB00038C020918400309185008091F6019927FB
:100AC00087FD9095FC01EE0FFF1FE80FF91FE9501D
:100AD000FE4F81819281820F931F909389008093B2
:100AE00088008091F601992787FD9095FC01EE0F13
:100AF000FF1FE80FF91FE950FE4F808186FF11C0EC
:100B00008091F601992787FD9095FC01EE0FFF1F5C
:100B1000E80FF91FE950FE4F808161E08F730E945A
:100B20008D0AFF91EF91BF91AF919F918F917F912E
:100B30006F915F914F913F912F910F900FBE0F904A
:100B40001F9018952091F5012C30A0F431E0320F60
:100B50003093F501FC012083822F90E0FC01EE0F21
:100B6000FF1FE80FF91FE950FE4F88EB9BE09283CF
:100B7000818308952FEFFC0120830895DF92EF9287
:100B8000FF920F931F93CF93DF93EC01D62E7A0140
:100B9000890188818C3008F066C061E08D2D0E944B
:100BA000540A8881A82FB0E0FD01EE0FFF1FEA0F65
:100BB000FB1FE950FE4F2D2D2F739081907C922BBF
:100BC000908360E272E06E197F0977FF02C06D5F6B
:100BD0007F4F7595679575956795698340E659E0F0
:100BE000401B510B57FF02C04D5F5F4F5595479516
:100BF000559547954A836CE00E94A00E9CE0899F22
:100C0000B001112420E030E0A901460F571FFA017E
:100C1000EE0FFF1FE40FF51FE950FE4F908196FD88
:100C200016C02F5F3F4F2C30310571F781110FC077
:100C30001092800082E080938100109285001092D3
:100C40008400B19A80916F00826080936F008881E8
:100C500090E0FC01EE0FFF1FE80FF91FE950FE4F77
:100C60008081806480838881DF91CF911F910F9173
:100C7000FF90EF90DF90089520E639E040E252E0E7
:100C80000C94BE05FC0180818C3070F5918128E8C0
:100C900030E0291B310997FD3395220F331F220FB6
:100CA000331F621773077CF0928128E532E0291B1D
:100CB000310997FD3395220F331F220F331F62171F
:100CC00073070CF49B0122503109220F331F4FB7D9
:100CD000F89490E0FC01EE0FFF1FE80FF91FE950B8
:100CE000FE4F328321834FBF0895449A459AE9EB22
:100CF000F0E080818E7F808380818D7F808388E497
:100D00008093B80084E48093BC00089570933E0201
:100D100060933D020895CF92DF92EF92FF920F937E
:100D20001F930E943A096B017C0184EA8093BC0006
:100D300080913D0290913E022091BC0027FD1BC096
:100D40000097D1F30E943A096C197D098E099F0919
:100D500040913D0250913E028A0120E030E0601750
:100D600071078207930720F31092BC0084E48093FC
:100D7000BC0081E01CC08091B900887F883029F0D8
:100D80008091B900887F803111F480E010C080919B
:100D9000B900887F883341F48091B9001092BC007B
:100DA00094E49093BC0002C08091B900887F1F91A9
:100DB0000F91FF90EF90DF90CF900895CF92DF9248
:100DC000EF92FF920F931F93CF93C62F0E943A0981
:100DD0006B017C01CC2311F084EC01C084E880938A
:100DE000BC0080913D0290913E022091BC0027FD05
:100DF0001BC00097D1F30E943A096C197D098E0936
:100E00009F0940913D0250913E028A0120E030E06E
:100E1000601771078207930720F31092BC0084E4E7
:100E20008093BC0081E010C08091B900887F883336
:100E300041F48091B9001092BC0094E49093BC00FE
:100E400002C08091B900887FCF911F910F91FF90D0
:100E5000EF90DF90CF900895CF92DF92EF92FF92C4
:100E60000F931F930E943A096B017C0184E98093E0
:100E7000BC0080913D0290913E022091BC0024FF75
:100E80001BC00097D1F30E943A096C197D098E09A5
:100E90009F0940913D0250913E028A0120E030E0DE
:100EA000601771078207930720F31092BC0084E457
:100EB0008093BC0081E001C080E01F910F91FF9002
:100EC000EF90DF90CF900895CF92DF92EF92FF9254
:100ED0000F931F93CF93DF93EC016093BB000E94AD
:100EE0003A096B017C0184E88093BC0080913D024B
:100EF00090913E022091BC0027FD1BC00097D1F3CA
:100F00000E943A096C197D098E099F0920913D02C2
:100F100030913E02890120E030E0601771078207BE
:100F2000930720F31092BC0084E48093BC0081E01E
:100F300024C08091B900887F883129F08091B90060
:100F4000887F803411F480E018C01091B900187FB8
:100F50008091B900887F803229F08091B900887F24
:100F6000883429F4CE010E942C07812F06C01092EC
:100F7000BC0084E48093BC00F8CFDF91CF911F9137
:100F80000F91FF90EF90DF90CF900895CF92DF9276
:100F9000EF92FF920F931F93CF93DF93EC01609337
:100FA000BB000E943A096B017C0184E88093BC007D
:100FB00080913D0290913E022091BC0027FD1BC014
:100FC0000097D1F30E943A096C197D098E099F0997
:100FD00020913D0230913E02890120E030E060170F
:100FE00071078207930720F31092BC0084E480937A
:100FF000BC0081E019C08091B900887F883299F0E7
:101000001091B900187F8091B900887F803321F456
:10101000CE010E942C0705C01092BC0084E480938E
:10102000BC00812F01C080E0DF91CF911F910F9113
:10103000FF90EF90DF90CF900895EF92FF920F9383
:101040001F93CF93DF931F92CDB7DEB77C01042FA0
:10105000122FFC01108269830E948B06F7018083A6
:10106000698181112CC0660FC7010E946407F701D6
:101070008083882321F0813011F582E020C0602F29
:10108000C7010E94C607F7018083882321F08130C1
:10109000B1F483E014C0612FC7010E94C607F701B5
:1010A00080838111F4CFC7010E942C07F701808350
:1010B000882321F0813019F487E001C080E00F908F
:1010C000DF91CF911F910F91FF90EF9008950C94B5
:1010D0001D08DF92EF92FF920F931F93CF93DF9340
:1010E000EC01F62EE42ED22E109241021092400214
:1010F000211102C0DD24D3948FEF8D0D89831882D6
:10110000CE010E948B068883811162C0FF0C6F2D77
:10111000CE010E9464078883882329F0813009F07A
:1011200057C082E055C06E2DCE010E94C60788834D
:10113000882329F0813009F04BC083E049C0CE01FB
:101140000E948B068883882329F0813009F040C0F3
:1011500084E03EC061E06F0DCE010E946407888389
:10116000811103C0780110E019C0813089F585E054
:101170002FC060E0CE010E94DE0688838130C1F07E
:10118000883531F58091BB00F70181937F011F5FA6
:101190001093410210933F021D1579F089811817B1
:1011A00041F361E0CE010E94DE068883813011F4B4
:1011B00086E00EC0803531F30BC0CE010E942C07B3
:1011C0008883882321F0813019F487E001C080E012
:1011D000DF91CF911F910F91FF90EF90DF900895D5
:1011E0001F920F920FB60F9211242F933F938F935C
:1011F0009F93AF93BF938091430290914402A0913B
:101200004502B09146023091420223E0230F2D3770
:1012100020F40196A11DB11D05C026E8230F0296FA
:10122000A11DB11D2093420280934302909344027A
:10123000A0934502B09346028091470290914802E4
:10124000A0914902B0914A020196A11DB11D80935F
:10125000470290934802A0934902B0934A02BF917B
:10126000AF919F918F913F912F910F900FBE0F9053
:101270001F9018952FB7F894609143027091440223
:1012800080914502909146022FBF08953FB7F89490
:101290008091470290914802A0914902B0914A0280
:1012A00026B5A89B05C02F3F19F00196A11DB11DC1
:1012B0003FBF6627782F892F9A2F620F711D811DDE
:1012C000911D42E0660F771F881F991F4A95D1F73D
:1012D0000895CF92DF92EF92FF92CF93DF936B014D
:1012E0007C010E944609EB01C114D104E104F10420
:1012F00089F00E949F0E0E9446096C1B7D0B683E80
:10130000734090F381E0C81AD108E108F108C85190
:10131000DC4FEACFDF91CF91FF90EF90DF90CF903D
:101320000895789484B5826084BD84B5816084BD5D
:1013300085B5826085BD85B5816085BDEEE6F0E04E
:10134000808181608083E1E8F0E0108280818260AA
:101350008083808181608083E0E8F0E0808181602B
:101360008083E1EBF0E0808184608083E0EBF0E05B
:10137000808181608083EAE7F0E0808184608083FF
:1013800080818260808380818160808380818068A9
:1013900080831092C10008951F93CF93DF93182F7D
:1013A000EB0161E00E94540A209711F460E004C050
:1013B000CF3FD10539F461E0812FDF91CF911F91AB
:1013C0000C948D0AE12FF0E0E859FF4FE491E330EF
:1013D000F9F048F4E130B9F0E230A1F584B580626B
:1013E00084BDC8BD34C0E730E9F0E83019F1E4301D
:1013F00049F580918000806280938000D0938B00BB
:10140000C0938A0024C084B5806884BDC7BD1FC056
:1014100080918000806880938000D0938900C09381
:10142000880015C08091B00080688093B000C093A0
:10143000B3000DC08091B00080628093B000C09373
:10144000B40005C0C038D1050CF0B5CFAFCFDF91E7
:10145000CF911F910895833081F028F4813099F065
:101460008230A1F008958730A9F08830B9F0843037
:10147000D1F4809180008F7D03C0809180008F77B0
:1014800080938000089584B58F7702C084B58F7DE6
:1014900084BD08958091B0008F7703C08091B00023
:1014A0008F7D8093B0000895CF93DF9390E0FC018F
:1014B000E458FF4F2491FC01E057FF4F84918823AB
:1014C00049F190E0880F991FFC01E255FF4FA5916B
:1014D000B4918C559F4FFC01C591D4919FB7611178
:1014E00008C0F8948C91209582238C938881822364
:1014F0000AC0623051F4F8948C91322F30958323D6
:101500008C938881822B888304C0F8948C91822BE1
:101510008C939FBFDF91CF9108950F931F93CF932B
:10152000DF931F92CDB7DEB7282F30E0F901E859DD
:10153000FF4F8491F901E458FF4F1491F901E057EE
:10154000FF4F04910023C9F0882321F069830E9492
:101550002B0A6981E02FF0E0EE0FFF1FEC55FF4FE3
:10156000A591B4919FB7F8948C91611103C0109527
:10157000812301C0812B8C939FBF0F90DF91CF916E
:101580001F910F910895FC01818D228D90E0805C68
:101590009F4F821B91098F7399270895FC01918DAC
:1015A000828D981731F0828DE80FF11D858D90E0C6
:1015B00008958FEF9FEF0895FC01918D828D98170C
:1015C00061F0828DDF01A80FB11D5D968C91928D27
:1015D0009F5F9F73928F90E008958FEF9FEF089524
:1015E00080E69CE0892B49F080E090E0892B29F08F
:1015F0000E94600C81110C9400000895FC01848D00
:10160000DF01A80FB11DA35ABF4F2C91848D90E02C
:1016100001968F739927848FA689B7892C93A08907
:10162000B1898C9180648C93938D848D981306C0BE
:101630000288F389E02D80818F7D80830895CF9388
:10164000DF93EC01888D8823C9F0EA89FB898081CA
:1016500085FD05C0A889B9898C9186FD0FC00FB69C
:1016600007FCF5CF808185FFF2CFA889B9898C91DD
:1016700085FFEDCFCE010E94FE0AE7CFDF91CF912B
:101680000895CF92DF92FF920F931F93CF93DF9332
:101690001F92CDB7DEB76C01DC015B969C915B9726
:1016A0005C968C915C97981307C05096ED91FC91D5
:1016B0005197808185FD32C0F601038D10E00F5FE8
:1016C0001F4F0F731127F02EF601848DF81211C0F1
:1016D0000FB607FCF9CFD6015096ED91FC915197CA
:1016E000808185FFF1CFC60169830E94FE0A69816E
:1016F000EBCF838DE80FF11DE35AFF4F6083D601D6
:101700005B960C935B975296ED91FC915397808179
:101710008062808381E058968C930DC0D6015696E6
:10172000ED91FC91579760835096ED91FC91519704
:1017300080818064808381E090E00F90DF91CF9181
:101740001F910F91FF90DF90CF900895BF92CF929D
:10175000DF92EF92FF92CF93DF93EC016A017B015E
:10176000B22EE889F98982E08083411581EE58071D
:1017700061057105A1F060E079E08DE390E0A701DB
:1017800096010E94AC0E215031094109510956952C
:10179000479537952795211580E1380798F0E88916
:1017A000F989108260E874E88EE190E0A701960163
:1017B0000E94AC0E215031094109510956954795B7
:1017C00037952795EC85FD853083EE85FF85208351
:1017D000188EEC89FD89B082EA89FB89808180615D
:1017E0008083EA89FB89808188608083EA89FB891C
:1017F000808180688083EA89FB8980818F7D8083F6
:10180000DF91CF91FF90EF90DF90CF90BF90089540
:101810001F920F920FB60F9211242F938F939F93C5
:10182000EF93FF93E0915B02F0915C028081E09185
:101830006102F091620282FD12C090818091640287
:101840008F5F8F7320916502821751F0E0916402DF
:10185000F0E0E55BFD4F958F8093640201C08081CD
:10186000FF91EF919F918F912F910F900FBE0F904D
:101870001F9018951F920F920FB60F9211242F935D
:101880003F934F935F936F937F938F939F93AF9308
:10189000BF93EF93FF938BE492E00E94FE0AFF91C7
:1018A000EF91BF91AF919F918F917F916F915F91D8
:1018B0004F913F912F910F900FBE0F901F90189551
:1018C0008BE492E00E94C30A21E0892B09F420E016
:1018D000822F089510924E0210924D0288EE93E0EE
:1018E000A0E0B0E080934F0290935002A093510289
:1018F000B093520289E191E090934C0280934B02A5
:1019000085EC90E0909358028093570284EC90E02D
:1019100090935A028093590280EC90E090935C027D
:1019200080935B0281EC90E090935E0280935D0275
:1019300082EC90E09093600280935F0286EC90E0EE
:101940009093620280936102109264021092650289
:101950001092660210926702089508950E949109FC
:101960000E94AD0C0E948800C0EFDAE00E942703BD
:101970002097E1F30E94F00AF9CFCF92DF92EF9225
:10198000FF920F931F93CF93DF936C017A01EB01CA
:10199000E60EF71E00E010E0CE15DF0561F069915C
:1019A000D601ED91FC910190F081E02DC6010995E1
:1019B000080F191FF1CFC801DF91CF911F910F912F
:1019C000FF90EF90DF90CF9008956115710581F041
:1019D000DB010D900020E9F7AD0141505109461B94
:1019E000570BDC01ED91FC910280F381E02D09940D
:1019F00080E090E00895DC01ED91FC910190F08190
:101A0000E02D09940F931F93CF93DF93EC016DE0CA
:101A10000E94FB0C8C016AE0CE010E94FB0C800F3F
:101A2000911FDF91CF911F910F9108950F931F93F5
:101A3000CF93DF93EC010E94E50C8C01CE010E9454
:101A4000020D800F911FDF91CF911F910F9108958B
:101A50008F929F92AF92BF92CF92DF92EF92FF92BE
:101A60000F931F93CF93DF93CDB7DEB7A1970FB638
:101A7000F894DEBF0FBECDBF7C01C42EE52FCB0195
:101A8000D22E19A221E02D1510F02AE0D22E8E01BF
:101A90000F5D1F4F8D2C912CA12CB12C6C2D7E2F06
:101AA000A50194010E94AC0E8C2DD29E80191124A8
:101AB000015011098A3014F4805D01C0895CF8017D
:101AC0008083211531054105510521F0C22EE32FF8
:101AD000CA01E4CFB801C7010E94E50CA1960FB678
:101AE000F894DEBF0FBECDBFDF91CF911F910F9154
:101AF000FF90EF90DF90CF90BF90AF909F908F902E
:101B00000895CF92DF92EF92FF920F931F93CF939E
:101B1000DF93EC016A017B012115310579F4E8813D
:101B2000F9810190F081E02D642FDF91CF911F9119
:101B30000F91FF90EF90DF90CF9009942A303105FC
:101B4000E9F477FF1AC06DE20E94FB0C8C01442778
:101B50005527BA014C195D096E097F092AE0CE01AB
:101B60000E94280D800F911FDF91CF911F910F913F
:101B7000FF90EF90DF90CF9008952AE0B701A60183
:101B8000CE01DF91CF911F910F91FF90EF90DF90E9
:101B9000CF900C94280D0F931F93CF93DF93EC01FC
:101BA0009A01AB01662757FD6095762F0E94810D43
:101BB0008C01CE010E94020D800F911FDF91CF9109
:101BC0001F910F9108950F931F93CF93DF93EC0113
:101BD0000E943A09688779878A879B87E881F9811B
:101BE0000084F185E02DCE01099597FF15C00E9474
:101BF0003A09088519852A853B85601B710B820B84
:101C0000930B0C811D812E813F8160177107820724
:101C1000930720F38FEF9FEFDF91CF911F910F91EB
:101C20000895CF93DF93EC01CE010E94E30D97FD61
:101C300011C08D32910571F09C01205331092A3079
:101C4000310540F0E881F9810680F781E02DCE0171
:101C50000995EACFDF91CF910895CF92DF92FF925D
:101C60000F931F93CF93DF9300D000D0CDB7DEB793
:101C70006C01062F0E94110EFC0197FD4BC020E065
:101C800030E0A901F12C112707FD1095E017F107AD
:101C9000E9F0ED32F105C1F0CF01C0970A97B0F439
:101CA000AAE0B0E00E94CE0E9B01AC01CF01AA27B2
:101CB00097FDA095BA2F280F391F4A1F5B1F20538D
:101CC00031094109510902C0FF24F394D601ED9175
:101CD000FC910680F781E02DC60129833A834B836E
:101CE0005C830995C6010E94E30DFC01C097298120
:101CF0003A814B815C810A9748F2E017F10731F293
:101D0000FF2061F066277727CB01621B730B840BE2
:101D1000950B06C060E070E0CB0102C0CA01B901BA
:101D20000F900F900F900F90DF91CF911F910F9117
:101D3000FF90DF90CF90089561E00C942D0E0895F0
:101D4000991B79E004C0991F961708F0961B881F0D
:101D50007A95C9F780950895A1E21A2EAA1BBB1B9C
:101D6000FD010DC0AA1FBB1FEE1FFF1FA217B30767
:101D7000E407F50720F0A21BB30BE40BF50B661F7D
:101D8000771F881F991F1A9469F760957095809541
:101D900090959B01AC01BD01CF0108950E94DF0E1B
:101DA000A59F900DB49F900DA49F800D911D1124AF
:101DB0000895EE0FFF1F0590F491E02D0994A29F66
:101DC000B001B39FC001A39F700D811D1124911D0F
:101DD000B29F700D811D1124911D0895F894FFCFBD
:101DE0000000E8028000010000000C007F007F007E
:101DF000FE00FF510000000000410BBD0CC30ADCD7
:061E00000ACE0A1F0B00D0
:00000001FF
