:100000000C94B2000C94DA000C94DA000C940607FD
:100010000C9430070C945A070C94DA000C94DA0014
:100020000C94DA000C94DA000C94DA000C94DA00E8
:100030000C94DA000C94DA000C94DA000C94DA00D8
:100040000C941C0A0C94DA000C94270C0C94790C78
:100050000C94DA000C94DA000C94DA000C94DA00B8
:100060000C94DA000C94DA0000C2010001000500D3
:100070000500030000E1000001000F000F000D006B
:1000800000960000020019001A001700127A000002
:100090000700200021001D00807000000B002300DD
:1000A00023002000004B000014003700370034000C
:1000B000403800001E004B004B0048008025000027
:1000C0003200720072007000C01200006E00E90081
:1000D000E900E60060090000E500D801D801D5017B
:1000E000B0040000D301B403B403B103580200000C
:1000F000B4036707670762072C0100006707DD0E7E
:10010000DD0EDA0E00000000240027002A000000A7
:100110000000250028002B0000000000230026001E
:10012000290004040404040404040202020202027A
:1001300003030303030301020408102040800102AB
:10014000040810200102040810200000000700022B
:100150000100000304060000000000000000590434
:10016000DF0D520411241FBECFEFD8E0DEBFCDBF9C
:1001700011E0A0E0B1E0EEEAFCE202C005900D92D1
:10018000A638B107D9F713E0A6E8B1E001C01D9287
:10019000AF32B107E1F711E0C2E6D1E004C0229727
:1001A000FE010E940F16CE35D107C9F70E94360E08
:1001B0000C944A160C940000FB01DC0102C0019073
:1001C0000D9241505040D8F70895FB01DC01019099
:1001D0000D920020E1F70895FB019F01E894423061
:1001E000C4F04532B4F44A3029F497FB1EF49095DC
:1001F00081959F4F642F77270E94F915805D8A3380
:100200000CF0895D8193CB010097A1F716F45DE2B4
:1002100051931082C9010C942403AEE0B0E0E3E1F5
:10022000F1E00C9421160D891E8986E08C831A83D7
:1002300009838FEF9FE79E838D839E01275E3F4F4B
:10024000CE0101966F89788DA9010E9431012F811D
:100250003885020F131FF80110822E96E4E00C94EB
:100260003D16ABE0B0E0E7E3F1E00C9413163C017F
:100270002B015A01FC0117821682838181FD03C084
:100280006FEF7FEFC6C19AE0892E1E010894211CF2
:10029000311CF3012381F20123FD859123FF81911C
:1002A0002F01882309F4B2C1853239F423FD8591E9
:1002B00023FF81912F01853229F490E0B3010E9440
:1002C0003403E7CF982FFF24EE249924FFE1FF1594
:1002D000D0F09B3269F09C3228F4903259F093327E
:1002E00091F40EC09D3249F0903369F441E024C08E
:1002F00052E0F52A84E0F82A28C098E0F92A25C0BF
:10030000E0E1FE2A22C0F7FC29C0892F80538A3001
:1003100070F4F6FE05C0989C902C1124980E15C020
:10032000E89CE02C1124E80EF0E2FF2A0EC09E3279
:1003300029F4F6FC6BC140E4F42A07C09C3619F49A
:1003400050E8F52A02C0983649F4F20123FD959150
:1003500023FF91912F01992309F0B8CF892F85545C
:10036000833018F08052833038F444E050E0A40E1B
:10037000B51E5FE359830FC0933631F0933779F0A0
:10038000933509F056C020C0F5018081898342E091
:1003900050E0A40EB51E610101E010E012C0F501AD
:1003A000C080D180F6FC03C06FEF7FEF02C0692DE3
:1003B00070E042E050E0A40EB51EC6010E94190391
:1003C0008C015FE7F52214C0F501C080D180F6FCF6
:1003D00003C06FEF7FEF02C0692D70E042E050E094
:1003E000A40EB51EC6010E940E038C0150E8F52A2A
:1003F000F3FE07C01AC080E290E0B3010E9434030C
:10040000EA948E2D90E008171907A8F30EC0F601A4
:10041000F7FC8591F7FE81916F0190E0B3010E9496
:100420003403E110EA94015010400115110579F7E9
:10043000EAC0943611F0993669F5F7FE08C0F50167
:10044000208131814281538184E090E00AC0F5012E
:10045000808191819C01442737FD4095542F82E093
:1004600090E0A80EB91E9FE6F92257FF09C05095EB
:100470004095309521953F4F4F4F5F4FE0E8FE2A62
:10048000CA01B901A1012AE030E00E946003D82E20
:10049000D21840C0953729F41F2D1F7E2AE030E086
:1004A0001DC01F2D197F9F3661F0903720F49835BD
:1004B00009F0ACC00FC0903739F0983709F0A6C0EA
:1004C00004C028E030E00AC0106114FD146020E18F
:1004D00030E004C014FD166020E132E017FF08C0D0
:1004E000F501608171818281938144E050E008C010
:1004F000F50180819181BC0180E090E042E050E014
:10050000A40EB51EA1010E946003D82ED2188FE759
:10051000F82EF122F6FE0BC05EEFF522D91438F466
:10052000F4FE07C0F2FC05C08FEEF82202C01D2DBC
:1005300001C0192DF4FE0DC0FE01ED0DF11D8081ED
:10054000803319F499EEF92208C01F5FF2FE05C04E
:1005500003C08F2D867809F01F5F0F2DF3FC14C0A8
:10056000F0FE0FC01E1510F09D2C0BC09D2C9E0C94
:10057000911A1E2D06C080E290E0B3010E94340360
:100580001F5F1E15C0F304C01E1510F4E11A01C050
:10059000EE2404FF0FC080E390E0B3010E94340317
:1005A00002FF1DC001FD03C088E790E00EC088E592
:1005B00090E00BC0802F867891F001FF02C08BE2A3
:1005C00001C080E2F7FC8DE290E0B3010E943403A9
:1005D00006C080E390E0B3010E9434039A94D914DA
:1005E000C0F3DA94F101ED0DF11D808190E0B301CB
:1005F0000E943403DD20A9F706C080E290E0B30139
:100600000E943403EA94EE20C1F743CEF3016681E1
:100610007781CB012B96E2E10C942F16FC0105901B
:10062000615070400110D8F7809590958E0F9F1FF4
:100630000895FC016150704001900110D8F7809539
:1006400090958E0F9F1F0895DC01FC01672F71911B
:100650007723E1F7329704C07C916D9370836291A8
:10066000AE17BF07C8F308950F931F93CF93DF937F
:100670008C01EB018B8181FF1BC082FF0DC02E819D
:100680003F818C819D812817390764F4E881F981C5
:100690000193F983E88306C0E885F985802F0995E1
:1006A000892B31F48E819F8101969F838E8302C0B6
:1006B0000FEF1FEFC801DF91CF911F910F910895A8
:1006C000FA01AA27283051F1203181F1E8946F9383
:1006D0006E7F6E5F7F4F8F4F9F4FAF4FB1E03ED029
:1006E000B4E03CD0670F781F891F9A1FA11D680FC7
:1006F000791F8A1F911DA11D6A0F711D811D911DFA
:10070000A11D20D009F468943F912AE0269F11246E
:100710003019305D3193DEF6CF010895462F4770D2
:10072000405D4193B3E00FD0C9F7F6CF462F4F702D
:10073000405D4A3318F0495D31FD4052419302D08B
:10074000A9F7EACFB4E0A695979587957795679531
:10075000BA95C9F700976105710508959B01AC0131
:100760000A2E06945795479537952795BA95C9F758
:10077000620F731F841F951FA01D08952F923F9233
:100780004F925F926F927F928F929F92AF92BF92A1
:10079000CF92DF92EF92FF920F931F93DF93CF934D
:1007A00000D000D0CDB7DEB71B014A0109831A8300
:1007B0002B833C83AA2797FDA095BA2FBC01CD01BE
:1007C0000E948A142B013C01B101882777FD809596
:1007D000982F0E948A149B01AC01C301B2010E94B0
:1007E00086132B013C01C701B60129813A814B8157
:1007F0005C810E9486139B01AC01C301B2010E947F
:100800003E157B018C0182189308AA2497FCA094C2
:10081000BA2CC501B4010E948A149B01AC01C80125
:10082000B7010E94EF1329813A814B815C810E94BC
:1008300087130F900F900F900F90CF91DF911F9122
:100840000F91FF90EF90DF90CF90BF90AF909F906F
:100850008F907F906F905F904F903F902F90089572
:100860008130910589F46F5F7F4FD9F486E891E07C
:100870006AE04BE020E00E94EE098EE092E060E04A
:1008800071E00E9438110895892B59F46F5F7F4FF2
:1008900041F48EE092E00E946A1186E891E00E94A5
:1008A0007608089580E090E06FEF7FEF0E943004BB
:1008B000089581E090E06FEF7FEF0E94300408958B
:1008C00062C089E093E00E94660D853519F1853795
:1008D00049F520C0809137016FEF70E00E94340B22
:1008E0008091390160E00E94D30B89E093E061E0E0
:1008F00071E00E94920F809135010E94120BBC01A1
:1009000089E093E04AE050E00E94600F89E093E0C4
:100910000E94710E809135010E94120B8656934001
:10092000CCF22BC0843419F1843669F520C0809153
:1009300037016FEF70E00E94340B8091390161E064
:100940000E94D30B89E093E066E071E00E94920F71
:10095000809135010E94120BBC0189E093E04AE0CE
:1009600050E00E94600F89E093E00E94710E809138
:1009700035010E94120B4F97D4F68091370160E049
:1009800070E00E94340B89E093E00E94320D892BC5
:1009900009F097CF089580911402882381F0609127
:1009A0000E0270910F0289E093E00E947C10109279
:1009B00014028EE092E060E071E00E94511108950F
:1009C0004F925F926F927F928F929F92AF92BF925F
:1009D000CF92DF92EF92FF920F931F93DF93CF930B
:1009E000CDB7DEB7A4970FB6F894DEBF0FBECDBF6C
:1009F000582E492E3A014B015901DE011196E2E4CD
:100A0000F1E084E201900D928150E1F7C401B3015D
:100A10000E9457147B018C01CB01652D742D4AE097
:100A200050E00E94EC00852D942D9C01690103C0CB
:100A30000894C11CD11CF60180818823C9F78EE27D
:100A40008083C801B7010E948A149B01AC01C401D4
:100A5000B3010E9486137B018C01AA0CBB1CAA0C5B
:100A6000BB1CAC0EBD1EF501618172818381948136
:100A70000E948A149B01AC01C801B7010E943E1577
:100A80000E94571497FF07C09095809570956195C7
:100A90007F4F8F4F9F4F0894C11CD11CCB01B601D3
:100AA0004AE050E00E94EC00852D942DA4960FB6EC
:100AB000F894DEBF0FBECDBFCF91DF911F910F9194
:100AC000FF90EF90DF90CF90BF90AF909F908F906E
:100AD0007F906F905F904F900895CF92DF92EF924A
:100AE000FF920F931F930E94700A20910A02309187
:100AF0000B0240910C0250910D02621B730B840B90
:100B0000950B685E73408040904008F476C08FE09B
:100B10000E94120B60E070E04FEF53E000E010E045
:100B200020EC31E40F2EF0E0CF2EF0E0DF2EF8EED7
:100B3000EF2EF1E4FF2EF02D0E94BE036B017C012D
:100B400006E112E0C801B701A60125E030E00E94ED
:100B5000E00400D000D000D0EDB7FEB7319682EAB5
:100B600091E0ADB7BEB712969C938E9311978DE02E
:100B700091E093838283158304830E940D018DB7D6
:100B80009EB706960FB6F8949EBF0FBE8DBF8FE03E
:100B90000E94120BBC0189E093E04AE050E00E9401
:100BA000730F89E093E063E171E00E94920FC70147
:100BB000B60121E53BE642E95FE30E943E1522E0F3
:100BC0003CEB49E550E40E948613AB01BC0189E08F
:100BD00093E022E030E00E94791089E093E065E143
:100BE00071E00E947C100E94700A60930A02709368
:100BF0000B0280930C0290930D021F910F91FF90B6
:100C0000EF90DF90CF9008950F931F9301E029C0DC
:100C100080911502882349F486E891E00E947F08BC
:100C20008632F9F4009315021CC086E891E00E9418
:100C30007F08182F8A3031F481E0809314021092DB
:100C4000150215C0863241F4009315028EE092E041
:100C500060E071E00E9451118EE092E0612F0E94ED
:100C6000F21086E891E00E94A008892B89F61F9176
:100C70000F910895EF92FF920F931F930E946D05BD
:100C80000E9404060E94CB040E94600480913501FA
:100C90000E94120B7C0109E013E0C8016FE171E0D2
:100CA0000E94920FC801B7014AE050E00E94600F15
:100CB000C80165E171E00E947C1064EF71E080E0A2
:100CC00090E00E947E0A1F910F91FF90EF9008958F
:100CD0000F931F9309E013E0C80140E855E260E07C
:100CE00070E00E94B40CC80161E271E00E947C10C7
:100CF0008091390161E00E94940B86E891E040E820
:100D000055E260E070E00E9484070E94700A6093E0
:100D100006027093070280930802909309020E94D2
:100D2000700A60930A0270930B0280930C029093F6
:100D30000D021F910F9108950F931F93CF93DF938F
:100D4000FC01738D76957170A685B785958577239F
:100D500029F08C91892309F454C004C08C91892313
:100D600009F04FC08389948920E001972FEF8F3FCE
:100D70009207D9F7C589D689A685B785158560E01C
:100D800031E040E050E000E0CE01202F01972FEF4E
:100D90008F3F9207D9F78C91812311F0632B03C009
:100DA000832F80956823330F4F5F5F4F4830510585
:100DB00059F78789908D20E001972FEF8F3F920799
:100DC000D9F771116095809176022091770290E0B9
:100DD00001968F73907030E08217930779F0E0915D
:100DE0007602F0E0EA5CFD4F60838091760290E04D
:100DF00001968F7390708093760203C0838D81601B
:100E0000838FDF91CF911F910F9108951F920F92C1
:100E10000FB60F9211242F933F934F935F936F93CD
:100E20007F938F939F93AF93BF93EF93FF938091A3
:100E3000340290913502009711F00E949C06FF91B8
:100E4000EF91BF91AF919F918F917F916F915F9142
:100E50004F913F912F910F900FBE0F901F901895BB
:100E60001F920F920FB60F9211242F933F934F931F
:100E70005F936F937F938F939F93AF93BF93EF9302
:100E8000FF938091340290913502009711F00E94F7
:100E90009C06FF91EF91BF91AF919F918F917F91B0
:100EA0006F915F914F913F912F910F900FBE0F90D7
:100EB0001F9018951F920F920FB60F9211242F9327
:100EC0003F934F935F936F937F938F939F93AF93D2
:100ED000BF93EF93FF938091340290913502009776
:100EE00011F00E949C06FF91EF91BF91AF919F91ED
:100EF0008F917F916F915F914F913F912F910F90C3
:100F00000FBE0F901F901895CF92DF92EF92FF9235
:100F10000F931F93CF93DF93EC017A018B011A8E0D
:100F2000198E188E1F8A1E8A1D8A1C8A1B8A20E031
:100F300030E06901CC0CDD1CC20ED31EB601660F79
:100F4000771F660F771FAB0148595F4FFA018591F4
:100F50009591A591B4918E159F05A007B107E9F46D
:100F6000FB01E459FF4F859194919C8B8B8BFB0186
:100F7000E259FF4F859194919E8B8D8BFB01E05937
:100F8000FF4F85919491988F8F8BFB01EE58FF4F07
:100F9000859194919A8F898F06C02F5F3F4F2D3096
:100FA000310509F0C6CF8F89988D892B09F449C086
:100FB0004C85463108F03DC090916800483010F4EF
:100FC00084E005C04E3010F082E001C081E0892B42
:100FD00080936800483028F4EDE6F0E0ADE6B0E03C
:100FE0000BC04E3028F0ECE6F0E0ACE6B0E004C018
:100FF000EBE6F0E0ABE6B0E05081483040F481E051
:1010000090E002C0880F991F4A95E2F710C0242F84
:1010100030E04E3018F42850304002C02E5030409E
:1010200081E090E002C0880F991F2A95E2F7852B96
:101030008C93898D9A8D20E001972FEF8F3F920737
:10104000D9F780913402909135028C179D0781F079
:101050008B8D8E7F8B8F9FB7F89410927602809144
:10106000760280937702D0933502C09334029FBFFB
:10107000DF91CF911F910F91FF90EF90DF90CF9074
:101080000895FC014485463180F5483028F4EDE6AA
:10109000F0E0ADE6B0E00BC04E3028F4EBE6F0E057
:1010A000ABE6B0E004C0ECE6F0E0ACE6B0E05081C6
:1010B000483040F481E090E002C0880F991F4A95C3
:1010C000E2F710C0242F30E04E3018F428503040A2
:1010D00002C02E50304081E090E002C0880F991F7E
:1010E0002A95E2F7809585238C930895FC018AE682
:1010F00091E091838083CF010E944108089520915F
:101100003402309135022817390731F49091770273
:1011100080917602981719F42FEF3FEF0FC0E091FE
:101120007702F0E0EA5CFD4F20818091770290E049
:1011300001968F7390708093770230E0C901089513
:1011400020913402309135022817390719F020E038
:1011500030E00EC0809176022091770290E0805CB2
:101160009F4F821B910960E470E00E94C4159C01AE
:10117000C90108950F931F93DC0159968D919C919D
:101180005A97892B49F481E090E013969C938E93B3
:10119000129720E030E097C00FB7F8945B968C91DF
:1011A0005B975196ED91FC91529750962C915097E8
:1011B00081FF8DC08081822B808359968D919C9177
:1011C0005A97049620E001972FEF8F3F9207D9F7A7
:1011D0005B968C915B9781FF35C031E040E050E039
:1011E00070E010E0832F90E0862397235196ED91D5
:1011F000FC91529750962C915097892B29F0808121
:1012000020952823208303C08081822B80835996D8
:101210008D919C915A97212F01972FEF8F3F920725
:10122000D9F7330F4F5F5F4F48305105D9F65196CC
:10123000ED91FC915297908150968C9150978095AA
:10124000892333C031E040E050E070E010E0832FAC
:1012500090E0862397235196ED91FC9152975096FA
:101260002C915097892B21F08081822B808304C0A0
:10127000808120952823208359968D919C915A979F
:10128000212F01972FEF8F3F9207D9F7330F4F5F31
:101290005F4F48305105D9F65196ED91FC91529728
:1012A000808150969C915097892B80830FBF5996CF
:1012B0008D919C915A9720E001972FEF8F3F9207D5
:1012C000D9F721E030E0C9011F910F910895808185
:1012D00020952823208371CF20913402309135024C
:1012E0002817390749F49FB7F89410927602809135
:1012F0007602809377029FBF089520913402309147
:1013000035022817390731F49091770280917602DF
:10131000981719F42FEF3FEF0AC0E0917702F0E041
:10132000EA5CFD4F8081282F332727FD3095C901C6
:1013300008951F93CF93DF93EC01162F862F60E063
:101340000E94940B8B8D81FD04C0812F61E00E946F
:10135000D30B1C87212F30E0C9018A5C9E4FFC0112
:1013600084918D872E5D3E4FF9016491E62FF0E068
:10137000EE0FFF1FE85EFE4F859194919F878E8749
:10138000DF91CF911F9108951F93CF93DF93EC01CD
:10139000162F862F61E00E94940B60E08B8D81FFF9
:1013A00061E0812F0E94D30B212F30E0C9018A5CBC
:1013B0009E4FFC018491888B2E5D3E4FF901649114
:1013C000E62FF0E0EE0FFF1FE25FFE4F8591949154
:1013D0009A8B898BDF91CF911F910895FF920F9384
:1013E0001F938C01F62EFC011382128288EE93E08B
:1013F000A0E0B0E084839583A683B7838AE691E07A
:1014000091838083148A138A168A158A108E178A0C
:10141000128E118E838D2170220F8C7F822B838FF1
:10142000C801642F0E94C409C8016F2D0E94990948
:101430001F910F91FF9008951F920F920FB60F9278
:1014400011242F933F934F935F936F937F938F93C9
:101450009F93AF93BF9320917C0230917D02409186
:101460007E0250917F0270918002DA01C9010296DA
:10147000A11DB11D672F6A5F6D3730F06D57DA011E
:10148000C9010396A11DB11D6093800280937C0267
:1014900090937D02A0937E02B0937F0280917802A8
:1014A00090917902A0917A02B0917B020196A11DE0
:1014B000B11D8093780290937902A0937A02B09341
:1014C0007B02BF91AF919F918F917F916F915F91BF
:1014D0004F913F912F910F900FBE0F901F90189535
:1014E0008FB7F89420917C0230917D0240917E026A
:1014F00050917F028FBFB901CA0108959B01AC01D1
:101500007FB7F8948091780290917902A0917A0245
:10151000B0917B0266B5A89B05C06F3F19F001969C
:10152000A11DB11D7FBFBA2FA92F982F8827860F25
:10153000911DA11DB11D63E0880F991FAA1FBB1F3C
:101540006A95D1F7BC012DC0FFB7F894809178025D
:1015500090917902A0917A02B0917B02E6B5A89BA6
:1015600005C0EF3F19F00196A11DB11DFFBFBA2FB5
:10157000A92F982F88278E0F911DA11DB11DE3E083
:10158000880F991FAA1FBB1FEA95D1F7861B970BDF
:10159000885E9340C8F2215030404040504068512E
:1015A0007C4F211531054105510571F60895789458
:1015B00084B5826084BD84B5816084BD85B5826058
:1015C00085BD85B5816085BDEEE6F0E080818160F6
:1015D0008083E1E8F0E010828081826080838081F6
:1015E00081608083E0E8F0E0808181608083E1EBCE
:1015F000F0E0808184608083E0EBF0E080818160B6
:101600008083EAE7F0E0808184608083808182606B
:101610008083808181608083808180688083109254
:10162000C1000895982F8E3008F09E5097708091D9
:101630003B018295880F880F807C892B80937C00EA
:1016400080917A00806480937A0080917A0086FD90
:10165000FCCF2091780040917900942F80E030E019
:10166000282B392BC90108951F93CF93DF93182F8F
:10167000EB0161E00E94940B209709F44AC0CF3F30
:10168000D10509F449C0E12FF0E0E65BFE4F8491FB
:101690008330C1F0843028F4813051F08230B1F5CC
:1016A0000CC0863019F1873049F1843079F514C0C7
:1016B00084B5806884BDC7BD33C084B5806284BDF5
:1016C000C8BD2EC080918000806880938000D09338
:1016D0008900C093880024C080918000806280933C
:1016E0008000D0938B00C0938A001AC08091B00014
:1016F00080688093B000C093B30012C08091B000A6
:1017000080628093B000C093B4000AC0C038D10595
:101710001CF4812F60E002C0812F61E00E94D30B96
:10172000DF91CF911F910895CF93DF93482F50E021
:10173000CA018A5C9E4FFC0134914E5D5E4FFA01F6
:101740008491882369F190E0880F991FFC01EC5F78
:10175000FE4FA591B491FC01E25FFE4FC591D4917B
:10176000662351F42FB7F8948C91932F9095892389
:101770008C93888189230BC0623061F42FB7F89471
:101780008C91932F909589238C938881832B8883C8
:101790002FBF06C09FB7F8948C91832B8C939FBF6B
:1017A000DF91CF910895482F50E0CA01865B9E4F8C
:1017B000FC012491CA018A5C9E4FFC0194914E5D0C
:1017C0005E4FFA013491332309F440C0222351F1D2
:1017D000233071F0243028F42130A1F0223011F5AB
:1017E00014C02630B1F02730C1F02430D9F404C041
:1017F000809180008F7703C0809180008F7D8093DF
:10180000800010C084B58F7702C084B58F7D84BD01
:1018100009C08091B0008F7703C08091B0008F7DA8
:101820008093B000E32FF0E0EE0FFF1FE25FFE4F6A
:10183000A591B4912FB7F894662321F48C919095DB
:10184000892302C08C91892B8C932FBF08951F92FE
:101850000F920FB60F9211242F933F934F938F93B4
:101860009F93EF93FF938091C00082FD1DC0409134
:10187000C6002091C1023091C2022F5F3F4F2F73EB
:1018800030708091C3029091C4022817390771F01B
:10189000E091C102F091C202EF57FD4F40833093B7
:1018A000C2022093C10202C08091C600FF91EF9155
:1018B0009F918F914F913F912F910F900FBE0F905D
:1018C0001F901895E0911503F0911603E05CFF4F0F
:1018D0008191919120813181805C9F4F821B930B7C
:1018E00060E470E00E94C415892B11F00E9460042E
:1018F00008951F920F920FB60F9211242F933F93CA
:101900008F939F93EF93FF932091050330910603EC
:1019100080910703909108032817390731F48091CB
:10192000C1008F7D8093C10014C0E0910703F09146
:101930000803EB53FD4F208180910703909108032A
:1019400001968F7390709093080380930703209300
:10195000C600FF91EF919F918F913F912F910F9032
:101960000FBE0F901F901895AF92BF92DF92EF922B
:10197000FF920F931F93CF93DF93EC017A018B01BA
:10198000DD24D39491E0A92EB12CEC89FD89DD20D2
:1019900069F0C50108A002C0880F991F0A94E2F7F8
:1019A000808360E874E88EE190E005C0108260E416
:1019B00072E48FE090E0A80197010E94D7152150B2
:1019C000304040405040569547953795279580E1E7
:1019D0002030380720F0DD2011F0DD24D6CFE88953
:1019E000F9893083EA89FB89208319A2EE89FF896E
:1019F000408121E030E0C9010C8C02C0880F991FA2
:101A00000A94E2F7482B4083EE89FF894081C9019F
:101A10000D8C02C0880F991F0A94E2F7482B40836F
:101A2000EE89FF894081C9010E8C02C0880F991F81
:101A30000A94E2F7482B4083EE89FF8980810F8C5E
:101A400002C0220F331F0A94E2F720952823208337
:101A5000DF91CF911F910F91FF90EF90DF90BF909A
:101A6000AF900895DC011C96ED91FC911D97E05C10
:101A7000FF4F8191919120813181805C9F4F821B2A
:101A8000930B60E470E00E94C4150895DC011C967D
:101A9000ED91FC911D97E05CFF4F20813181E05476
:101AA000F040DF01AE5BBF4F8D919C9111972817DD
:101AB000390719F42FEF3FEF07C08D919C91E80F84
:101AC000F91F8081282F30E0C9010895DC011C96A0
:101AD000ED91FC911D97E05CFF4F20813181E05436
:101AE000F040DF01AE5BBF4F8D919C91119728179D
:101AF000390719F42FEF3FEF10C08D919C9111978A
:101B0000E80FF91F20818D919C91119701968F7399
:101B1000907011969C938E9330E0C9010895DC017A
:101B200091968C919197882339F05496ED91FC9180
:101B30005597808186FFF9CF91961C920895CF9397
:101B4000DF93EC01EE85FF85E05CFF4F2081318162
:101B5000E054F0402F5F3F4F2F733070DF01AE5BDA
:101B6000BF4F8D919C91119728173907D1F3E05CF5
:101B7000FF4F80819181E054F040E80FF91F6083AE
:101B8000EE85FF85E05CFF4F31832083EE89FF897E
:101B9000208181E090E00F8C02C0880F991F0A9489
:101BA000E2F7282B208381E089A3EC89FD898081DD
:101BB0008064808381E090E0DF91CF91089510925E
:101BC0000C0310920B0388EE93E0A0E0B0E080934A
:101BD0000D0390930E03A0930F03B09310038AE7B5
:101BE00091E090930A038093090381E892E0909337
:101BF00016038093150385EC92E09093180380936D
:101C0000170385EC90E090931A038093190384ECFA
:101C100090E090931C0380931B0380EC90E09093E2
:101C20001E0380931D0381EC90E09093200380932A
:101C30001F0382EC90E0909322038093210386ECB3
:101C400090E0909324038093230384E08093250302
:101C500083E08093260387E08093270385E08093C9
:101C6000280381E08093290308950895CF93DF939B
:101C70000E94D70A0E94350E0E946806C2E6DCE088
:101C80000E943A062097E1F30E94620CF9CFCF92AE
:101C9000DF92EF92FF920F931F93CF93DF937C011C
:101CA0006B018A01C0E0D0E00FC0D6016D916D01DB
:101CB000D701ED91FC910190F081E02DC7010995CC
:101CC000C80FD91F015010400115110571F7CE0141
:101CD000DF91CF911F910F91FF90EF90DF90CF9008
:101CE0000895EF92FF920F931F938C01DC01ED9109
:101CF000FC910190F081E02D6DE009957C01D80107
:101D0000ED91FC910190F081E02DC8016AE0099508
:101D10009C012E0D3F1DC9011F910F91FF90EF9067
:101D20000895CF93DF93EC016115710519F420E05C
:101D300030E00FC0DB010D900020E9F71197A61BE2
:101D4000B70BE881F9810280F381E02DAD0109959F
:101D50009C01C901DF91CF9108954F925F927F92CC
:101D60008F929F92AF92BF92CF92DF92EF92FF92AB
:101D70000F931F93DF93CF93CDB7DEB7A1970FB625
:101D8000F894DEBF0FBECDBF2C01742ECB012230E4
:101D900008F42AE019A231E2C32ED12CCC0EDD1EAC
:101DA000822E9924AA24BB24672D752FA5019401A6
:101DB0000E94D71579018A01C801B701A5019401D4
:101DC0000E94A515472D461B0894C108D1084A302A
:101DD00014F4405D01C0495CF6014083E114F10454
:101DE0000105110521F07E2C5F2DC801DDCFC20158
:101DF000B6010E94910EA1960FB6F894DEBF0FBEF9
:101E0000CDBFCF91DF911F910F91FF90EF90DF90A9
:101E1000CF90BF90AF909F908F907F905F904F90AA
:101E20000895DC012115310541F4ED91FC910190FB
:101E3000F081E02D642F099508950E94AD0E08955C
:101E4000CF92DF92EF92FF920F931F93CF93DF9386
:101E5000EC016A017B012115310541F4E881F9812A
:101E60000190F081E02D642F09951FC02A303105C3
:101E7000D1F477FF17C0E881F9810190F081E02D5E
:101E80006DE209958C0144275527BA014C195D096B
:101E90006E097F09CE012AE00E94AD0E9801280F3D
:101EA000391F04C02AE00E94AD0E9C01C901DF91D8
:101EB000CF911F910F91FF90EF90DF90CF900895F9
:101EC000EF92FF920F931F937B019A010027F7FC7B
:101ED0000095102FB801A7010E94200F1F910F91AC
:101EE000FF90EF900895CF92DF92EF92FF920F93C1
:101EF0001F936C017B019A010027F7FC0095102FBE
:101F0000B801A7010E94200F8C01C6010E94710E2A
:101F1000080F191FC8011F910F91FF90EF90DF90DC
:101F2000CF9008950E94910E08957F928F929F9274
:101F3000AF92BF92CF92DF92EF92FF920F931F93D7
:101F4000CF93DF934C017A018B01722ECB01BA0142
:101F5000A80197010E94A115882321F0C40167E21E
:101F600071E021C0C0E0D0E057016801E894D7F8E3
:101F7000C601B5012FEF3FEF4FE75FE70E94A115C4
:101F8000882351F4C601B5012FEF3FEF4FE75FE71C
:101F90000E94EB13181614F0C1E0D0E0219739F03D
:101FA000C4016BE271E00E94910EEC0193C0C80184
:101FB000B7012FEF3FEF4FE75FE40E943A15181685
:101FC00054F0C801B7012FEF3FEF4FE75FEC0E94DD
:101FD000EB13882324F4C4016FE271E0E4CFC8015D
:101FE000B70120E030E040E050E00E94EB1387FDB5
:101FF00003C0C0E0D0E00EC0D401ED91FC9101908F
:10200000F081E02DC4016DE20995EC0117FB1095FC
:1020100017F9109520E030E040E05FE3DD240BC0CD
:10202000CA01B90120E030E040E251E40E94EF1320
:102030009B01AC01D394D71498F3C801B7010E9457
:1020400087135B016C010E945C147B018C01C4014D
:10205000B801A7012AE030E00E94110FC80FD91F74
:10206000772039F0C40163E371E00E94910EC80F3C
:10207000D91FC801B7010E9488149B01AC01C60199
:10208000B5010E94861324C020E030E040E251E414
:102090000E943E157B018C010E9457145B016C016C
:1020A000CC24B7FCC094DC2CC401B601A5012AE005
:1020B00030E00E94200FC80FD91FC601B5010E9451
:1020C0008A149B01AC01C801B7010E9486137A945F
:1020D0007720D1F6CE01DF91CF911F910F91FF9024
:1020E000EF90DF90CF90BF90AF909F908F907F90B8
:1020F00008950E94950F0895EF92FF920F931F93FA
:102100007C010E94910E8C01C7010E94710E080F84
:10211000191FC8011F910F91FF90EF9008950F9321
:102120001F93CF93DF93EC018B016F5F7F4F88810B
:1021300099810E94A512009711F480E005C099834F
:1021400088831B830A8381E0DF91CF911F910F91D8
:102150000895CF93DF93EC0188819981892B29F031
:102160008A819B818617970760F4CE010E948F10A9
:10217000882341F08C819D81892B19F4E881F981B4
:10218000108281E0DF91CF910895EF92FF920F933B
:102190001F93CF93DF93EC017B016C817D81E11470
:1021A000F104C1F04115510599F08A01060F171F7E
:1021B000B8010E94A910882369F0888199812C8137
:1021C0003D81820F931FB7010E94E5001D830C83A0
:1021D00081E001C080E0DF91CF911F910F91FF90CE
:1021E000EF900895DF93CF9300D0CDB7DEB769832A
:1021F0001A82BE016F5F7F4F41E050E00E94C51020
:102200000F900F90CF91DF910895CF93DF93EC0162
:1022100088819981009711F00E940D12198218820D
:102220001D821C821B821A82DF91CF910895EF924A
:10223000FF920F931F93CF93DF93EC017B018A01F1
:10224000BA010E94A910882321F4CE010E94051131
:1022500007C01D830C8388819981B7010E94E50026
:10226000CE01DF91CF911F910F91FF90EF900895D4
:10227000CF93DF93EC01198218821B821A821D8290
:102280001C826115710551F0DB010D900020E9F70A
:102290001197A61BB70BAD010E941711DF91CF91CB
:1022A00008950F931F93182F092F6115710559F089
:1022B000DB010D900020E9F71197A61BB70BAD01CC
:1022C0000E94171102C00E940511812F902F1F91AB
:1022D0000F910895FC01808191810E940D12089553
:1022E0000F931F93CF93DF93BC018230910510F4BD
:1022F00062E070E0E0912D03F0912E0340E050E0A9
:10230000A0E0B0E024C08081918186179707D0F0CB
:102310008617970771F482819381109729F013969D
:102320009C938E9312972CC090932E0380932D0331
:1023300027C04115510519F08417950718F48D0130
:10234000AC01EF01DF01828193819C01F90130979B
:10235000D1F641155105F9F0CA01861B970B84305F
:10236000910580F48A819B810115110521F0F80106
:102370009383828304C090932E0380932D03FE01E8
:10238000329645C0FE01E80FF91F619371930297E1
:10239000998388833CC080912B0390912C03892BD7
:1023A00041F480913E0190913F0190932C038093E2
:1023B0002B0340914001509141014115510541F4D9
:1023C0004DB75EB780913C0190913D01481B590B80
:1023D00020912B0330912C0324173507B0F4CA0148
:1023E000821B930B8617970780F0AB014E5F5F4F00
:1023F0008417950750F0420F531F50932C034093BE
:102400002B03F9016193719302C0E0E0F0E0CF018A
:10241000DF91CF911F910F910895CF93DF939C018E
:10242000009709F48FC0EC0122971B821A826091F9
:102430002D0370912E036115710581F488819981B6
:10244000820F931F20912B0330912C0328173907FB
:1024500039F5D0932C03C0932B0374C0DB0140E00B
:1024600050E0AC17BD0708F1BB83AA83FE012191A0
:102470003191E20FF31FAE17BF0779F48D919C9154
:102480001197280F391F2E5F3F4F398328831296EB
:102490008D919C9113979B838A834115510571F40B
:1024A000D0932E03C0932D034DC012968D919C9115
:1024B0001397AD01009711F0DC01D3CFDA01139629
:1024C000DC93CE931297FA0121913191E20FF31F21
:1024D000CE17DF0769F488819981280F391F2E5F95
:1024E0003F4FFA01318320838A819B8193838283CA
:1024F000E0E0F0E0DB0112968D919C91139700973C
:1025000019F0BC01FD01F6CFAB014E5F5F4FDB015F
:102510008D919C91840F951F20912B0330912C035A
:102520002817390779F4309729F410922E03109266
:102530002D0302C0138212824250504050932C034C
:1025400040932B03DF91CF9108956F927F928F92EA
:102550009F92AF92BF92CF92DF92EF92FF920F9332
:102560001F93CF93DF938C01009729F4CB010E9436
:1025700070118C01BBC08EEFE82E8FEFF82EE00EAD
:10258000F11E4801860E971E8E149F0408F4ACC0FD
:10259000D7014D915C91119746175707B8F0453018
:1025A000510508F4A3C0CA0104978617970708F4D9
:1025B0009DC042505040461B570BF401419351932C
:1025C0006D937C93CF010E940D1290C05B01A41A01
:1025D000B50A3801640E751EA0912D03B0912E032B
:1025E000E0E0F0E0CC24DD2447C0A615B705A9F54E
:1025F000CD91DC911197CE0102968A159B0568F169
:10260000CE018A199B09029612962C911297139665
:102610003C91059758F0F40122833383CA19DB09F2
:10262000D183C083D7016D937C9309C04E5F5F4F08
:102630004C0F5D1FF70151834083C901FC01C11498
:10264000D10431F0D6011396FC93EE9312974EC04D
:10265000F0932E03E0932D0349C08D919C91119727
:10266000E817F90708F4FC016D0112968C91129796
:1026700013969C919C01D901109709F0B6CF8091D7
:102680002B0390912C0386159705E9F4E617F707BD
:10269000D0F420914001309141012115310541F4E0
:1026A0002DB73EB780913C0190913D01281B390B1D
:1026B00082169306C8F490922C0380922B03F701A4
:1026C0007183608313C0CB010E947011EC010097ED
:1026D00059F0D7014D915C91B8010E94DC00C8010E
:1026E0000E940D128E0102C000E010E0C801DF91CF
:1026F000CF911F910F91FF90EF90DF90CF90BF90FF
:10270000AF909F908F907F906F9008955058BB2707
:10271000AA270ED075C166D130F06BD120F031F40C
:102720009F3F11F41EF45BC10EF4E095E7FB51C12D
:10273000E92F77D180F3BA176207730784079507EB
:1027400018F071F49EF58FC10EF4E0950B2EBA2FA0
:10275000A02D0B01B90190010C01CA01A0011124A7
:10276000FF27591B99F0593F50F4503E68F11A1653
:10277000F040A22F232F342F4427585FF3CF4695E4
:1027800037952795A795F0405395C9F77EF41F1606
:10279000BA0B620B730B840BBAF09150A1F0FF0FD0
:1027A000BB1F661F771F881FC2F70EC0BA0F621FBC
:1027B000731F841F48F4879577956795B795F795AC
:1027C0009E3F08F0B3CF9395880F08F09927EE0F3E
:1027D000979587950895D9D008F481E008950CD095
:1027E0000FC107D140F0FED030F021F45F3F19F067
:1027F000F0C0511139C1F3C014D198F39923C9F332
:102800005523B1F3951B550BBB27AA2762177307F6
:10281000840738F09F5F5F4F220F331F441FAA1FAA
:10282000A9F333D00E2E3AF0E0E830D0915050406A
:10283000E695001CCAF729D0FE2F27D0660F771F18
:10284000881FBB1F261737074807AB07B0E809F0FA
:10285000BB0B802DBF01FF2793585F4F2AF09E3F8F
:10286000510568F0B6C000C15F3FECF3983EDCF361
:10287000869577956795B795F7959F5FC9F7880F08
:10288000911D9695879597F90895E1E0660F771F5A
:10289000881FBB1F621773078407BA0720F0621BEB
:1028A000730B840BBA0BEE1F88F7E095089504D0E4
:1028B0006894B111D9C00895BCD088F09F5790F0AA
:1028C000B92F9927B751A0F0D1F0660F771F881F55
:1028D000991F1AF0BA95C9F712C0B13081F0C3D070
:1028E000B1E00895C0C0672F782F8827B85F39F00E
:1028F000B93FCCF3869577956795B395D9F73EF4B4
:1029000090958095709561957F4F8F4F9F4F08955B
:10291000E89409C097FB3EF4909580957095619579
:102920007F4F8F4F9F4F9923A9F0F92F96E9BB272F
:102930009395F695879577956795B795F111F8CFAB
:10294000FAF4BB0F11F460FF1BC06F5F7F4F8F4F16
:102950009F4F16C0882311F096E911C0772321F00C
:102960009EE8872F762F05C0662371F096E8862FA4
:1029700070E060E02AF09A95660F771F881FDAF7FB
:10298000880F9695879597F90895990F0008550F28
:10299000AA0BE0E8FEEF16161706E807F907C0F0E5
:1029A00012161306E407F50798F0621B730B840BED
:1029B000950B39F40A2661F0232B242B252B21F4C7
:1029C00008950A2609F4A140A6958FEF811D811D67
:1029D000089597F99F6780E870E060E008959FEFA1
:1029E00080EC089500240A941616170618060906A6
:1029F000089500240A941216130614060506089575
:102A0000092E0394000C11F4882352F0BB0F40F4FC
:102A1000BF2B11F460FF04C06F5F7F4F8F4F9F4F3C
:102A2000089557FD9058440F551F59F05F3F71F0BE
:102A30004795880F97FB991F61F09F3F79F0879525
:102A40000895121613061406551FF2CF4695F1DFAE
:102A500008C0161617061806991FF1CF869571053E
:102A6000610508940895E894BB2766277727CB0172
:102A700097F908958ADF08F48FEF08950BD0C0CF3F
:102A8000B1DF28F0B6DF18F0952309F0A2CFA7CF69
:102A90001124EACFC6DFA0F3959FD1F3950F50E044
:102AA000551F629FF001729FBB27F00DB11D639F00
:102AB000AA27F00DB11DAA1F649F6627B00DA11DA6
:102AC000661F829F2227B00DA11D621F739FB00D4C
:102AD000A11D621F839FA00D611D221F749F3327BC
:102AE000A00D611D231F849F600D211D822F762F55
:102AF0006A2F11249F5750408AF0E1F088234AF052
:102B0000EE0FFF1FBB1F661F771F881F915050409D
:102B1000A9F79E3F510570F05CCFA6CF5F3FECF365
:102B2000983EDCF3869577956795B795F795E79589
:102B30009F5FC1F7FE2B880F911D9695879597F99A
:102B4000089523DF880B990B0895629FD001739F2E
:102B5000F001829FE00DF11D649FE00DF11D929F39
:102B6000F00D839FF00D749FF00D659FF00D992778
:102B7000729FB00DE11DF91F639FB00DE11DF91F9C
:102B8000BD01CF011124089597FB092E07260AD015
:102B900077FD04D02ED006D000201AF470956195F0
:102BA0007F4F0895F6F7909581959F4F0895A1E284
:102BB0001A2EAA1BBB1BFD010DC0AA1FBB1FEE1FB7
:102BC000FF1FA217B307E407F50720F0A21BB30B02
:102BD000E40BF50B661F771F881F991F1A9469F77E
:102BE00060957095809590959B01AC01BD01CF01DA
:102BF0000895AA1BBB1B51E107C0AA1FBB1FA61744
:102C0000B70710F0A61BB70B881F991F5A95A9F795
:102C100080959095BC01CD010895EE0FFF1F0590A2
:102C2000F491E02D09942F923F924F925F926F9210
:102C30007F928F929F92AF92BF92CF92DF92EF924C
:102C4000FF920F931F93CF93DF93CDB7DEB7CA1BCD
:102C5000DB0B0FB6F894DEBF0FBECDBF09942A88F8
:102C6000398848885F846E847D848C849B84AA84A0
:102C7000B984C884DF80EE80FD800C811B81AA812D
:102C8000B981CE0FD11D0FB6F894DEBF0FBECDBFF8
:102C9000ED01089511E0C2E6D1E004C0FE010E94FA
:0E2CA0000F162296C436D107C9F7F894FFCF5D
:102CAE00005550207C00444F574E207C0021562565
:102CBE007323005600230021432573230043005045
:102CCE0000496E697421006E616E00696E66006F58
:102CDE007666002E000300050003000180002F031E
:102CEE000000000000000A00000064000000E8037D
:102CFE00000010270000A086010040420F008096C1
:102D0E00980000E1F50500000000BA08470EA00883
:102D1E007F087D096C09000000009F0D470E320DE3
:062D2E00660D460D8F0D3D
:00000001FF
